:100000000C94E9010C9406020C9406020C94931EC5
:100010000C9406020C9406020C9406020C94060240
:100020000C9406020C9406020C94BB230C948F24AF
:100030000C943B1D0C9406020C9406020C940602D0
:100040000C9406020C9406020C9406020C94060210
:100050000C9406020C94B31D0C9406020C94060238
:100060000C9406020C9406020C9406020C940602F0
:100070000C9406020C9406020C9406020C940602E0
:100080000C9406020C9406020C9406020C940602D0
:100090000C9406020C9406020C9406020C940602C0
:1000A0000C9406020C9406020C94060214001A002A
:1000B00008001500170004001600070009000A00D8
:1000C0001D221B2106241900050029412C42000095
:1000D000000000001C0018000C00120013000B00B0
:1000E0000D000E000F0033021100100036243721DE
:1000F000383228432A0000000000000001000100FF
:1001000001000100010001000100D200D100010046
:100110000100010001000100010000002C000000AE
:1001200000000000AA00A900D900D2000100CF0001
:10013000CE00CD00D0000100DB00DA00D900DC00E9
:10014000010028002A00000000000000010001005A
:100150004B00010001000100E100E300E2000100AA
:10016000E100010001000100010029000000000081
:10017000000000004A004E004B004D0001005000FE
:10018000510052004F002B0001000100010001004E
:10019000E50028002A000000000000001E021F02E7
:1001A0002002210222021E001F0020002100220046
:1001B00035022D002E002E022F00E1002C00000041
:1001C0000000000023022402250226022702230049
:1001D00024002500260027003000310034023400BE
:1001E000333200002A000000000000000000000080
:1001F000000000002A2B2800000000000000000082
:100200000000000000000029000000002C1E342027
:10021000212224342627252E362D3738271E1F204D
:100220002122232425263333362E37381F04050692
:100230000708090A0B0C0D0E0F10111213141516D6
:100240001718191A1B1C1D2F3130232D35040506D4
:100250000708090A0B0C0D0E0F10111213141516B6
:100260001718191A1B1C1D2F3130354C00000000C7
:10027000000000000000000000000000000000007E
:10028000000000000000000000000000000000006E
:100290007E0F00D4FFFFFFC7000000781A0346005E
:1002A000650072007200690073002000730077001F
:1002B0006500650070000000080344005000420023
:1002C00000000403090409023B00020100A0FA092E
:1002D0000400000103010100092111010001224471
:1002E0000007058103080001090401000103000063
:1002F00000092111010001227B0007058203200073
:10030000011201000200000008ABC23939010001EE
:1003100002000105010902A10185020901A10005F0
:1003200009190129081500250195087501810205A3
:1003300001093009311581257F950275088106096B
:10034000381581257F950175088106050C0A38024C
:100350001581257F950175088106C0C005010980BA
:10036000A101850319012AB700150126B7009501DF
:1003700075108100C0050C0901A101850419012A2D
:10038000A002150126A002950175108100C005018B
:100390000906A101050719E029E7150025019508BF
:1003A000750181029501750881010507190029FF72
:1003B000150026FF0095067508810005081901291A
:1003C00005150025019505750191029501750391AB
:1003D00001C011241FBECFEFDAE0DEBFCDBF11E0B8
:1003E000A0E0B1E0ECEBFEE402C005900D92AE3C63
:1003F000B107D9F722E0AEECB1E001C01D92A63CF6
:10040000B207E1F70E94A0140C9415270C94000089
:100410008430B8F46830A8F4453098F450E095E0A2
:10042000699F400D511D1124FA0198E2899FE00D4A
:10043000F11D1124EE0FFF1FE455FF4F859194919C
:10044000089581E090E008950E94080208959C01BB
:100450003A9521153F4150F5FC01EE27F170BC01A2
:1004600066277270AC01442754709C0122273870B3
:1004700094FF0EC080E1EF2B09F480E0672B09F0B8
:100480008062452B09F08064232B89F080680895F1
:1004900081E0EF2B09F480E0672B09F08260452BA7
:1004A00009F08460232B19F08860089580E0089596
:1004B000CF93DF93EB010E942702FE010995DF91A4
:1004C000CF910895CF93DF93EC01805E9109089757
:1004D00020F065E477E0209711F466E075E0CE0146
:1004E0000E9458028C2F0E946904DF91CF910895D9
:1004F000CF93DF93EC010E94B204CE01805E91099C
:10050000089720F06CE477E0209711F46DE075E037
:10051000CE010E945802DF91CF9108950F931F934F
:10052000CF93DF938C01EB010E946202209741F48C
:10053000C8010E947802DF91CF911F910F91089519
:100540008FE99FE00197F1F700C000002197EECFFF
:1005500070E060E08933910511F460E570E00E947D
:100560008E02089581E008950E94B20208950E94CB
:10057000B202089581E008950E94B20208950E9497
:10058000B20208950E94BF020895089508950E943E
:10059000C502089508950895A6E0B0E0E2EDF2E006
:1005A0000C94712649835A839E833091D5018981A9
:1005B0009A8131111AC03E81332399F0222389F0A8
:1005C0000E94B808182F682F89819A810E94940888
:1005D00069817A81812F0E94A90F2696E3E00C940D
:1005E0008D260E94A608182FF3CF0E94B8086981B3
:1005F0007A81F1CFFC01262F408151816281738184
:10060000848195810E94CC020895CF93DF93EC0101
:1006100061E00E94FA02BE010E94B402882359F0F0
:1006200061E0CE010E94FA02BE010E94B702817011
:10063000DF91CF91089580E0FACF0F931F93CF936E
:10064000DF93EC0160E00E94FA028C01BE010E947F
:10065000C602BE01C8010E94C702DF91CF911F915F
:100660000F91089521E030E0A90102C0440F551F09
:100670008A95E2F7CA010E94B6070895CF93C82F62
:1006800081E090E00C2E02C0880F991F0A94E2F7D7
:100690000E94F70C8C2F0E943203CF91089581E0C5
:1006A00008950E944F0308950E944F030895CF9329
:1006B000C82F0E9469078C2F0E9451038C2F0E9423
:1006C00054032FEF84E39CE0215080409040E1F7F9
:1006D00000C00000CF91089581E00E9457030E945E
:1006E000D71D089580E00E9457030E94E81D0895D9
:1006F0000F931F93CF93DF938C0161E00E94FA0266
:10070000EC01B8010E94BC02811106C080E0DF91BB
:10071000CF911F910F910895B801CE010E94C2029E
:100720008823A1F3B801CE010E94C814882371F375
:10073000B801CE010E94341B882341F3B801CE01D9
:100740000E94BD16882311F3B801CE010E949316B2
:100750008823E1F2B801CE010E94ED108823B1F2A6
:10076000F8018581882361F0C330FCE7DF07E9F0F9
:1007700058F4C115ECE7DE07A9F0C130DC47B9F049
:10078000C8010E94BA02C3CFCB358CE7D807A9F0C5
:10079000CC35ECE7DE0771F0CA35DC4789F70E94FB
:1007A000D20CEECF0E946C03B1CF0E94DA0C0E94F3
:1007B0007203ACCF0E94C80CE3CF0E94D60CE0CFEE
:1007C0000E94CA020E94FD1C0E94040408950E9417
:1007D00008040E94CB020E94021D089581E0089542
:1007E0000895CF93DF93D82F0E94EE03C82F88235C
:1007F00019F08D2F0E94F0038C2FDF91CF91089577
:1008000008950E94F103089580E00E940104089574
:100810000E947D1B0E9401040895CF930E947D1BBE
:10082000C82F8091D0018C1779F0C093D0010E941D
:10083000A71D6093D1017093D2018093D30190934F
:10084000D4018C2F0E940104CF910895ADE0B0E057
:10085000ECE2F4E00C947226488759876A877B871C
:100860008C879D8791110E94080C1F8286E0FE01F3
:100870003896DE01119601900D928A95E1F78D81EF
:1008800081110DC029813A814B815C816D817E810E
:100890008F810E944F0B2D96E2E00C948E26CE01A4
:1008A00001960E9405038111EDCFF5CFFC01248153
:1008B000213021F4808191810E94EA080895662305
:1008C00029F00E941E180E94F11808950E947818BD
:1008D000FACFCF93C82F882399F08CEF8C0F813AF1
:1008E00088F48C2F0E940C1C882329F08C2F0E94E6
:1008F0004F1C0E94770C8C2F0E94471C0E94770C83
:10090000CF91089580E28C0F883048F4C77081E061
:1009100001C0880FCA95EAF70E94E80BEFCFEBE51C
:10092000EC0FE33040F4F0E0E157FE4F808190E0BF
:100930000E94AD1BE5CFE8E5EC0FEB3150F4F0E0A1
:10094000EE0FFF1FE75AFE4F808191810E94D21B5C
:10095000D7CF83E38C0F833198F661E08C2F0E9410
:100960005F04CECF882381F19CEF980F913A28F451
:100970000E944F1C0E94770C089590E2980F9830C7
:1009800050F4877091E001C0990F8A95EAF7892F9A
:100990000E94EE0BEFCF9BE5980F933028F490E088
:1009A00080E00E94AD1B089598E5980F9B3128F4D4
:1009B00090E080E00E94D21B089593E3980F93315A
:1009C00018F460E00E945F0408951F93CF93DF93B3
:1009D000182FEB010E946904209739F4812F0E949F
:1009E000B204DF91CF911F9108958FE99FE00197A5
:1009F000F1F700C000002197EFCF70E060E089338D
:100A000011F460E570E00E94E5040895882321F068
:100A10000E94E80B0E94770C0895882321F00E9421
:100A2000EE0B0E94770C0895B0E0A0E0EAE1F5E05B
:100A30000C946B266C01D62FC72FFC011581068103
:100A400002950F700E94DE0BE82E8823F9F0E12E4C
:100A50001123E1F08C2F807F803461F080E28D0FD4
:100A6000883008F18C2F807E803221F4D230D8F08B
:100A70000023C9F080919B0282FF15C082E00E9492
:100A80009C0C0E94DE0B91E0E82EE926BC2EB2946D
:100A90009FE0B922FBE0FB15B8F1EB2DF0E0E95E39
:100AA000F84D0C945C26E12CF1CF0C2F0F70C07F19
:100AB00011F00295007F112399F0002359F080E294
:100AC0008D0F883010F0D11107C0802F0E94E80BE5
:100AD0000E94770C8D2F48C0802F0E94FB0BF8CF0F
:100AE0008D2F0E94B204002379F080E28D0F8830B0
:100AF00010F0D11104C0802F0E94EE0B03C0802F94
:100B00000E94010C0E94770CEB2DE850FF0B3497EC
:100B100008F06BC10E947D1B0E940104CDB7DEB7B7
:100B2000E9E00C9487262C2F2F70F22EC07FC03264
:100B300019F0F29480EFF822DD2341F0D130C9F1B1
:100B4000112309F443C00023E9F0C4CF80919B0234
:100B500082FD14C0112359F0FF2029F08F2D0E942F
:100B6000E80B0E94770C80E00E946904CDCF80E002
:100B70000E94B204FF2041F28F2DBECF112369F0F5
:100B8000011104C08F2D0E940605BECF013009F06F
:100B9000BBCF8F2D0E941F0CB7CF0111B5CF8F2D6A
:100BA0000E940D058F2D0E942B0C8F2D0E940F0C83
:100BB000ABCF112321F0063008F0A6CFE3CF0530EC
:100BC00008F0A2CF8F2D0E940D059ECF0023D1F3F8
:100BD000D93349F43FEF87EE93E0315080409040A5
:100BE000E1F700C000008D2F0E94B2048DCF8C2F42
:100BF00086958695837069F0813009F085CF8D2FB9
:100C00009C2F9370111102C080E090E00E94D21BD3
:100C10007BCF8D2F9C2F9370111102C080E090E04C
:100C20000E94AD1B71CF612F8D2F0E945F046CCF8E
:100C30008C2F8370A1F5111167CF4D2F42954695EA
:100C40004770440F440F2D2F2F7030E0042E02C048
:100C5000220F331F0A94E2F790E080E0D4FF09C02E
:100C60008FE090E002C0880F991F4A95E2F78095C7
:100C70009095C695C695C370822B932BC23049F0D0
:100C800058F4C13019F00E94C2073ECF0E94B90744
:100C90003BCF0E94CB0738CF0E94B60735CF869551
:100CA000112311F08C2F8170882309F42DCF4D2F43
:100CB000429546954770440F440F2D2F2F7030E01A
:100CC000042E02C0220F331F0A94E2F790E080E066
:100CD000D4FF09C08FE090E002C0880F991F4A95A9
:100CE000E2F780959095C695C695C370822B932B9D
:100CF000C23049F058F4C13019F00E942D0804CFD9
:100D00000E94240801CF0E943608FECE0E94DA0716
:100D1000FBCECF70112329F08C2F0E94F2078D2F6C
:100D200032CF8D2F0E940D058C2F0E940208ECCE31
:100D3000D23F41F160F4D03FB9F0D13F81F01123AF
:100D400009F443C00111C6CE8C2F8F711FC0D33F51
:100D500001F1D43FA1F780919B0282FD24C08C2F2A
:100D60008F71112311F312C0112341F0053008F0E7
:100D7000CBCE8C2F8F710E941408C6CE063008F09F
:100D8000C3CEF7CF8C2F8F711111CFCF0E94F207F6
:100D9000BBCE112329F08C2F8F710E94E607B4CEB1
:100DA0000E94E107B1CE112331F063E08C2F8F71E7
:100DB0000E947E0CA9CE81E00E949C0C023008F4B7
:100DC000A3CE82E00E949C0C9FCE002359F0D93321
:100DD00009F009CFEFEFF7EE23E0E150F0402040BB
:100DE000E1F7FFCE8C2F8F71A0CFEE2009F496CEC5
:100DF0000E94DA0B80FD92CEF60115820E94D40B80
:100E00000E94F207C6010E9422070E94D40B0E9492
:100E1000020884CE0F931F93CF93DF93EC01688178
:100E200079818D810E94F5088C010E943F080E9403
:100E3000B507B801CE010E941405DF91CF911F9133
:100E40000F910895CF93DF93EC018C81882399F063
:100E5000CE010E947803811111C00E94DE0B88230D
:100E600051F08D81882339F080919B0282FF03C06D
:100E700082E00E949C0CDF91CF910895CE010E94E8
:100E80000A07CE010E941D03F6CF882321F00E949D
:100E9000FB0B0E94770C0895882321F00E94010C1F
:100EA0000E94770C089590E080E00E94AD1B90E0D6
:100EB00080E00E94D21B0E94080C0E94770C0E94C6
:100EC0000D190E94F11808950E94571C0E945307A3
:100ED00008950E94F80B0E946407089592959F70F0
:100EE000963091F058F4925F9F70923058F4803FA2
:100EF00019F030F4883E30F481E008959A5FF4CF21
:100F0000843FD1F380E00895883EB0F3813FD1F76C
:100F1000F3CFFC012481222339F0808191810E944A
:100F2000EA080E946E07089580E00895A6E0B0E008
:100F3000ECE9F7E00C9472262696E2E00C948E26FB
:100F4000A7E0B0E0E6EAF7E00C9472262796E2E02C
:100F50000C948E2608950E94AA0708950E94AB075C
:100F60009093ED018093EC01089508950E94AE07DF
:100F700008952091EC013091ED01822B932B0E947A
:100F8000AE0708952091EC013091ED018223932367
:100F90000E94AE0708952091EC013091ED01822767
:100FA00093270E94AE0708950E94AA0708950E9401
:100FB000D40708950E94D7079093EB018093EA012C
:100FC000089590E080E00E94DA07089521E030E083
:100FD000A90102C0440F551F8A95E2F7CA010E9479
:100FE000DA07089521E030E002C0220F331F8A950E
:100FF000E2F78091EA019091EB01822B932B0E9402
:10100000DA07089521E030E002C0220F331F8A95ED
:10101000E2F7209530958091EA019091EB018223CF
:1010200093230E94DA07089521E030E002C0220FE6
:10103000331F8A95E2F78091EA019091EB018227B4
:1010400093270E94DA0708952091EA013091EB017D
:10105000822B932B0E94DA0708952091EA013091A8
:10106000EB01822393230E94DA0708952091EA017D
:101070003091EB01822793270E94DA0708950895A3
:10108000262F277091E001C0990F2A95EAF723E0F7
:10109000769567952A95E1F7660F771F660F771F9C
:1010A000FA01E60FF71F50E040E0682F70E08191F1
:1010B000DF0111979B01042E02C0369527950A94F3
:1010C000E2F7217021952827292328272C934F5FA9
:1010D0005F4F4430510559F70895A82FA77023E0BA
:1010E000969587952A95E1F7880F991F880F991F84
:1010F000FB01E80FF91F50E040E080E0219130E073
:101100000A2E02C0369527950A94E2F721703327FC
:10111000042E01C0220F0A94EAF7822B4F5F5F4F23
:101120004430510559F70895262F983070F48530D2
:1011300060F4682F70E085E0989F600D711D1124A8
:1011400046ED51E0822F0E9440080895292F9830E3
:1011500068F4853058F490E066ED71E035E0239F47
:10116000800D911D11240E946D08089580E008955E
:10117000B0E0A0E0EEEBF8E00C946B267C0100916F
:10118000EA011091EB018091EC019091ED01082BA7
:10119000192BCFE0D0E0CC24C394D12CBC2EC601B7
:1011A0000C2E02C0880F991F0A94E2F78023912326
:1011B000892B49F4219790F7B12C8B2DCDB7DEB751
:1011C000E9E00C948726B7018C2F0E94B50F019798
:1011D00089F3F3CFCF93DF93EC010E94B808BE01EF
:1011E0000E94B50FDF91CF9108951F93CF93DF93A6
:1011F000EB019091D501992339F0CB010E94EA08C7
:10120000DF91CF911F910895882369F0CB010E944F
:10121000B808182F682FCE010E949408BE01812FB4
:101220000E94B50FEDCFCB010E94A608182FF6CF74
:101230001F93CF93DF93C091EE0117E08091EF01F0
:101240008C1304C0DF91CF911F910895D0E01C9FB3
:10125000F0011D9FF00D1124E051FE4F20813181DE
:10126000428153816481758186810E94A007219605
:10127000C770E4CF209128023091290240912A02C0
:1012800050912B0260912C0270912D0280912E02C0
:101290000E94A0070895CF93DF9380912E02807F54
:1012A00009F04DC080912D02882309F448C0E091D7
:1012B000EE015091EF01C0912902D0912802609176
:1012C0002A0270912B0247E05E17C9F18E2F90E041
:1012D000E49FF0011124E051FE4F2481222391F17B
:1012E000489FF001499FF00D1124DF01A051BE4F2E
:1012F00011962C9111972C1325C02C912D1322C0DF
:1013000015962C91159721111DC012962D913C9187
:10131000261B370B283C3105A8F480912E028F70D4
:10132000806180932E02EA50FE4F80818F70806131
:10133000808388E292E00E9422070E941809DF91D0
:10134000CF910895FC013196E770BECF482F2091D0
:10135000EE019091EF0157E0291302C080E008955B
:1013600030E0529FF001539FF00D1124E051FE4FE9
:101370008181681306C08081481303C08581811173
:10138000EECF2F5F3F4F2770E7CFA4E1B0E0EBEC4B
:10139000F9E00C9468268C0186E0F801DE011F96C6
:1013A00001900D928A95E1F7F8018481E58098E239
:1013B000A92E92E0B92E90912C0291111FC0882382
:1013C000D1F0EE20A9F0C8010E948907F82E8823E9
:1013D00079F087E0F801D50101900D928A95E1F747
:1013E000C5010E9456040E944B090E943A095FC041
:1013F000C8010E942207FF24F39459C0C080D18005
:1014000082809380F0902D0220912A0230912B024D
:10141000A401421B530BFF2009F4F9C0483C5105BD
:1014200008F0A7C0882309F442C090912902809156
:101430002E02282F207F09F05CC09D1116C09091CC
:101440002802C91212C0E1104EC08F7080618093D3
:101450002E020E943A0988E292E00E9422078091BF
:101460002E02F8018683F12C22C0E1103CC06D2DC4
:101470008C2D0E94A6096D2D8C2D0E94A609E82EA8
:101480008111F1CFCF86D88A8F8598890E94EA088A
:10149000292F22952F70243078F49F702230A8F0E5
:1014A0009923B9F0F8019681907F99F4FE2C8F2D45
:1014B0006496ECE00C9484262A5F2F70223068F04A
:1014C000C8010E942207EF2CF1CF992311F0882345
:1014D00069F3805E883050F3F3CF803F38F3815F4B
:1014E000833070F7E3CF80912E02816080932E02CB
:1014F000BACF9D1113C090912802C9120FC0E110FC
:101500000DC08683C8010E94220787E0F801A8E287
:10151000B2E001900D928A95E1F767CFC8010E9471
:101520008907882309F464CFEE2009F461CF809104
:101530002E02803288F020912802309129023987CA
:1015400028879B868A8690912C029C871D868E8791
:10155000CE0108960E94220787E0F801A8E2B2E0D7
:1015600001900D928A95E1F70E944B090E943A0979
:1015700042CF90912E02292F207FA1F4682D9A8AC4
:10158000898AA6017A899E2D0E94960788E292E0B8
:101590000E94220787E0F50111928A95E9F70E94DF
:1015A0003A0961CF882309F482CF809129028D11F5
:1015B00010C080912802C8120CC0E1100AC09683A6
:1015C000C8010E94220787E0F50111928A95E9F788
:1015D0006ECFC8010E948907882309F409CFEE2045
:1015E00009F406CF80912E02803208F4B5CF209105
:1015F0002802309129023A8329839C828B82909120
:101600002C029D831E828F83CE010196A3CF483C7E
:101610005105B8F5882309F4EECEFE2CEE2009F42E
:10162000E7CE809129028D111EC080912802C81238
:101630001AC080912E0280FD0DC0982F907F51F02E
:101640008683903F09F45ECF982F907F905F8F70D4
:10165000892B57CF87E0F801A8E2B2E001900D9204
:101660008A95E1F724CFC8010E948907811174CFC0
:1016700080912E02816080932E02C8010E94220771
:1016800016CF682D9A8A898AA6017A899E2D0E9492
:10169000960787E0F50111928A95E9F7A6CEAEE0AC
:1016A000B0E0E5E5FBE00C947126288739874A878E
:1016B0005B876C877D878E87CE0108960E94C5095F
:1016C0008823B1F06C85662341F0288539854A85E9
:1016D0005B857D858E850E94A00717E08091EE01D5
:1016E0009091EF0189133DC02E96E3E00C948D2676
:1016F00087E0FE013896DE01119601900D928A95E1
:10170000E1F78C85882349F32091EF0130E0C9018E
:101710000196877099274091EE014817190699F0B4
:1017200097E0929FD001939FB00D1124A051BE4F1E
:10173000FE01319601900D929A95E1F78093EF01A9
:101740000E941809CACF0E9469071092EF011092F7
:10175000EE0187E0E8E2F2E0DF011D928A95E9F709
:10176000BCCF819FC001112480519E4F0E94C509AA
:10177000882309F4B9CFE091EE011E9FF0011124F6
:10178000E051FE4F20813181428153816481758116
:1017900086810E94A0078091EE0190E001968770FB
:1017A00099278093EE019ACF80913702869586958E
:1017B0008695089580913702877008959091370239
:1017C000977081E009F480E00895809143020895C4
:1017D00090914302892B80934302089580959091C4
:1017E00043029823909343020895809343020895FF
:1017F00010924302089590914202892B80934202F5
:101800000895809590914202982390934202089502
:1018100010924202089508950E940B0C0895909131
:101820003802292F282331F08095892380933802AC
:101830000E940C0C089508950E941B0C089590912D
:101840003902292F2823281729F0982B9093390241
:101850000E941C0C089590913902292F282331F001
:1018600080958923809339020E941C0C08958091F1
:101870003902882329F01092390280E00E941C0C62
:1018800008950F931F93CF93DF9300910001109160
:101890000101C091430280914202C82B809139021C
:1018A000882331F0C82B0E94F71B81110E94370C4E
:1018B000F801C083C0910001D091010148E050E0DF
:1018C0006FE272E0CE010E94AD26892B59F088E0CC
:1018D000FE01AFE2B2E001900D928A95E1F7CE01F0
:1018E0000E94941BDF91CF911F910F9108950E9448
:1018F000410C089508950E947A0C089590919B02DE
:1019000092FF11C098E0899F90011124622B60938F
:1019100037020E94F2078091370286958695869558
:101920000E947B0C08950E94F207089510923702DE
:1019300080E00E947B0C0895909137028095892366
:1019400080933702282F277069F4891759F09091F6
:101950009B0292FF07C08695869586950E94020895
:101960000E94960C089590919B0292FB222720F9E9
:10197000281769F080FB92F990939B0280919A025C
:1019800090919B020E94020D82E00E949C0C08959F
:1019900080919B0282FB882780F991E089270E9431
:1019A000B30C089581E00E94B30C089580E00E947A
:1019B000B30C08956FEF7FEF90E080E00E94FF2668
:1019C000089590E080E00E94CB2621E0853E9E4F66
:1019D00009F020E0822F089582E090E00E94C32663
:1019E000089583E090E00E94C32690E00895682F58
:1019F00083E090E00E94E126089584E090E00E9458
:101A0000CB260895BC0184E090E00E94FF26089553
:101A1000AB01BC018FE090E00E94F3260895AB017A
:101A2000BC0183E190E00E94F326089560E070E03D
:101A3000CB010E940F0D089560E070E0CB010E9481
:101A4000080D0E94160D0895A8E0B0E0EAE2FDE05E
:101A50000C94722665EE7EEF90E080E00E94FF26F7
:101A600060E082E090E00E94E12681E090E09093C7
:101A7000ED018093EC010E94F70C60E074E184E0DA
:101A800090E00E94FF2660E086E090E00E94E12660
:101A900060E087E090E00E94E12640E050E0BA017B
:101AA00088E090E00E94F32660E083E290E00E94EC
:101AB000E12660E08CE090E00E94E12660E08DE0AD
:101AC00090E00E94E12619821A821B821C821D82EC
:101AD0001E821F82188648E050E067E170E0CE0168
:101AE00001960E94D12640E050E0BA018FE190E0DB
:101AF0000E94F3260E941C0D2896E2E00C948E268C
:101B00000E94240D0895682F8EE090E00E94E12647
:101B10000895A6E0B0E0EFE8FDE00C9470260E9486
:101B20009B1D8C0180914402909145028017910782
:101B300081F019821A820E949B1D682F49815A8167
:101B4000792F80E090E00E942604109345020093D4
:101B500044022696E4E00C948C260E94D1106093F7
:101B600052027093530280935402909355026093F3
:101B70004E0270934F028093500290935102089549
:101B8000089508950E94C00D089508950E94C50DFE
:101B90000E94C20D089508950E94CB0D08950895E6
:101BA0000E94CF0D0E94CC0D089581E008958BEE28
:101BB00090E10E94B5140E94C10D0E94C60D0895C7
:101BC0000E94AC1208950895089508950E94E30DAF
:101BD0000E94E40D0E94E50D08950E94E10C811120
:101BE00002C00E94800D0E94EC0C809356020E945D
:101BF000FD0C90939B0280939A020E9478160E949B
:101C0000F10C0E94B6078091EA019091EB010E94CD
:101C1000D70708950E94921D0E94AB100E94B21235
:101C20000E94D2110E94ED0D0E9400040E9418151E
:101C30000E947B160E94C4120E94D00D0895A6E057
:101C4000B0E0E5E2FEE00C9469260E94D50D81111A
:101C50000CC00E94890D0E94AC120E942F190E9494
:101C60000D042696EBE00C9485260E94261286E44D
:101C7000A82E82E0B82E750110E0F70101917F01D6
:101C8000812F0E9407111F5F183009F441C0081707
:101C9000A1F38091560281FD0E940D110E94E00D7A
:101CA000C82E10E099249394812F0E940711082FC9
:101CB000F50181915F01081729F1F12CEE24E394DD
:101CC000D02ED8268D2D8E21A9F0CC2099F0F98226
:101CD0001A830E949B1D9C838B839D8291E0802FA1
:101CE0008E2109F490E049815A816B817C818D813C
:101CF0000E942604F394EE0CF5E0FF12E3CFF50109
:101D0000319700831F5F183079F60E94AD0DA3CF85
:101D10000813BFCF9ECF1F93CF93DF930E94BA0FBC
:101D2000EC01C11580E5D807F0F5C11580E4D807AE
:101D300008F09CC0C03ED10520F5CD3CD10508F08F
:101D400082C0C83AD10578F4C53AD10508F073C00D
:101D5000C130D10519F1209709F1C430D105F0F453
:101D6000D0E0C0E01BC0C33CD105D0F7C85AD0E0DA
:101D7000CC0FDD1FCE56DE4F0990D881C02DD46424
:101D80000DC0C11580E2D80708F0D1C0C11581E0AF
:101D9000D80708F05AC0C83ED10510F7CE01DF9130
:101DA000CF911F910895C03682E5D80718F5C03449
:101DB00082E5D80708F06BC0C03282E5D80708F08A
:101DC0005FC0C11582E5D80708F497C02C2F26956F
:101DD000269580E2289F900111248C2F8370C1E00A
:101DE000D0E002C0CC0FDD1F8A95E2F7C22BD32BC7
:101DF000DD68D4CFC03A82E5D80760F4C03882E508
:101E0000D80708F459C0CF71D0E0DC2FCC27C46FBD
:101E1000D06AC4CFC03C82E5D80708F462C0C03E97
:101E200082E5D80708F09CCFDC2FCC27CC27DF71C8
:101E3000C06FD06AB3CFC55AD0E0C853DE4FC88157
:101E4000D0E0D064ABCFD065A9CF8D2F0E945C10BD
:101E5000182FCE0199270E94BA0FC12FD0E0DC2F96
:101E6000CC27CC27DF71C82BD92B98CFCE0199274F
:101E70000E94BA0FCC27DF70C82BD92BD06A8ECF27
:101E8000CF71D0E0DC2FCC27C16FD06A87CF2C2F49
:101E900026952695277080E2289F900111248C2F8B
:101EA0008370C1E0D0E002C0CC0FDD1F8A95E2F75D
:101EB000C22BD32BDC6872CF2C2F2695269527704A
:101EC00080E2289F900111248C2F8370C1E0D0E024
:101ED00002C0CC0FDD1F8A95E2F7C22BD32BDA6844
:101EE0005DCF8C2F8F710E945C10C82FD0E0DC2F4B
:101EF000CC27CC27DF71D06251CF8C2F8F710E94FD
:101F00005C1055E0D695C7955A95E1F7CF70D0E0B3
:101F1000DC2FCC27282F30E084FF05C044E0220FBF
:101F2000331F4A95E1F7C22BD32BD06937CF8D2FC2
:101F30008F710E945C10182FCE0199270E94BA0F52
:101F4000C12FD0E0DC2FCC27CC27DF71C82BD92BB9
:101F5000D2CF462F783030F4653020F4672F0E94BE
:101F60002402089590E080E008950E94A90F0E9445
:101F70008B0E089582389105B9F1B0F48133910543
:101F800009F47DC048F48932910509F46DC08A32A4
:101F9000910509F47BC008958533910509F45FC06C
:101FA0008933910509F10895833E9105D9F138F4FB
:101FB000803E910529F1823E910579F10895863E92
:101FC0009105D9F1873E910509F43EC0843E910503
:101FD00041F520919B0221FF24C080919A0284FD4B
:101FE00019C087EE90E0089520919A02237009F0BD
:101FF0005AC020919B0223FF14C089E290E008950B
:1020000020919A0220FD38C030919B0230FF09C018
:1020100024FF43C090E080E0089520919A0222FDC1
:10202000F7CF089520919A0222FD3AC030919B0289
:1020300030FD39C024FFF5CFEDCF20919A0223FF68
:10204000F0CF24FDE7CFCDCF20919A0223FD2EC003
:1020500030919B0231FFEECF84EE90E00895209105
:102060009A0225FFDECFC9CF20919A0225FD21C01B
:1020700020919B0223FFD5CF89E390E0D2CF20911E
:102080009A0226FFCECF8AE290E0089520919A022C
:1020900026FFC7CF81E390E0089583EE90E0089596
:1020A00082EE90E0089580EE90E0089586EE90E054
:1020B000089585E390E0089590919A0292FF10C0F0
:1020C00041E0282F2471243009F040E031E0282F2E
:1020D0002871283009F030E0431711F02CE08227F6
:1020E00093FF10C041E0282F2471243109F040E013
:1020F00031E0282F2871283109F030E0431711F022
:102100002CE0822730919B0230FF10C051E0282F35
:102110002171213009F050E041E0282F287128304A
:1021200009F040E0541711F029E0822731FF10C078
:1021300041E0282F2171213109F040E031E0282FC2
:102140002871283109F030E0431711F029E0822787
:1021500094FD877E089510929C0210929D02109229
:102160009E0210929F020895CF92DF92EF92FF920B
:102170006B017C010E94AC1281110EC00E94A71D50
:10218000C61AD70AE80AF90AC0929C02D0929D02A8
:10219000E0929E02F0929F02FF90EF90DF90CF902E
:1021A00008950F931F930E94AC12882329F00E9478
:1021B000A71D1F910F9108950E94A71D00919C02D9
:1021C00010919D0220919E0230919F02600F711F1D
:1021D000821F931FEECF80E00895CF939C01205E75
:1021E0003245C1E02032310538F4FB01C581C1110F
:1021F00003C08F710E943E038C2FCF9108950895E4
:102200000E94FF10089508950E9403110895E82F79
:10221000F0E0E755FD4F80810895089508950E94EC
:102220000E110895EF92FF921F93CF93DF9300D08A
:1022300000D0CDB7DEB70E94AC12182F6091B1026A
:10224000882309F447C019821A821B821C82862FB8
:1022500090E09E012F5F3F4F7901B90187559D4F57
:102260000E94D2128823E9F08091A00290E044E01D
:1022700050E0B70187559D4F0E94AD2621E0209385
:102280005702892BC9F410E00E940411812F0F908E
:102290000F900F900F90DF91CF911F91FF90EF90D3
:1022A000089580915702882371F384E0F701119219
:1022B0008A95E9F710925702E091A002F0E0E75505
:1022C000FD4F89819A81AB81BC8180839183A283F8
:1022D000B383DACF70E067557D4F8091A00290E024
:1022E00087559D4F0E9459130E940F11CFCF1F9306
:1022F000CF93DF9322E031E0C1E0D0E0D90150E09C
:1023000040E08D918F3F91F0E82FE295EF70F0E083
:1023100011A18F70BE0101C0660F8A95EAF7962F52
:102320009095912391A382A1862B82A34F5F5F4F4B
:102330004530510531F72B5F3F4F81E0263138079B
:10234000E9F6DF91CF911F910895CF93DF93AC0110
:10235000A62FB0E085E0689FF0011124EE5FFE4FEC
:1023600070E081E060E091919F3FD1F0C92FC2956C
:10237000CF70D0E028A130E09F7002C0359527953E
:102380009A95E2F720FD0CC0282F622B7F5F880F03
:10239000753049F7A40FB51F6C93DF91CF91089565
:1023A00020E0F3CFA4E1B0E0E8EDF1E10C94722677
:1023B00080911601811126C084E1E5E4F1E0DE019F
:1023C000119601900D928A95E1F7FE013196A2E0F7
:1023D000B1E0CE01459620812C93218111962C935A
:1023E0001197228112962C931297238113962C9386
:1023F0001397248114962C931497359615968E175F
:102400009F0749F78091160194E0811190E0909325
:10241000B10284E0891B8093A0020E94771188E0BA
:10242000E9EAF2E0DF01982F1D929A95E9F7E1EAD7
:10243000F2E0DF011D928A95E9F784E00E946412C0
:102440000E9400116496E2E00C948E26A8E0B0E0B1
:10245000ECE2F2E10C946F268E010F5F1F4F88E0D3
:10246000F80111928A95E9F7F12C6F2DC8010E94AD
:10247000A511F394F4E0FF12F8CF48E050E0B80162
:1024800081EA92E00E94AD2621E0009709F420E065
:10249000892B41F088E0F801A1EAB2E001900D92A9
:1024A0008A95E1F76091B10270E067557D4F44E095
:1024B00081EA92E00E946512182F0E941211812B6E
:1024C0002896E5E00C948B260895B0E0A0E0EBE6BA
:1024D000F2E10C946C266C017B01042FC22F2223A5
:1024E00079F081E080935A020E949B1D90935902DB
:1024F0008093580280E0CDB7DEB7E8E00C948826E0
:10250000D0915A02DD23B1F3809158029091590283
:102510000E94191D059770F310E0A801B601C701CC
:102520000E94AD26892B31F0A801B601C7010E9497
:10253000BA26CD2F10925A028C2FDDCFCF930E9456
:102540003B26C82F811102C00E9436268C2FCF91C6
:10255000089580915E02089580915D0208950E9421
:10256000AC1208950E949E1280935D020E94AF12E9
:1025700080935E020E94A912809316010E94AC1201
:1025800081110E94081308950E94AC12811102C0AB
:102590000E940B13089581E090915F029A3008F039
:1025A00080E008950F931F93CF93DF93EC018B018D
:1025B00080915F028A30B8F4B801CE010E945613B0
:1025C000C82F811122C080915F028F3FB9F40E9411
:1025D0009B1D90935C0280935B028C2FDF91CF91C7
:1025E0001F910F91089580915B0290915C020E946F
:1025F000191D843F914000F7C0E0EFCF8F5F8093BB
:102600005F028A3020F7C1E0E8CF10925F02E5CF89
:102610000E944D1E08950E94501E0895B0E0A0E053
:10262000E4E1F3E10C946D267901C82F880FDD0BEE
:1026300041155105A9F0FE0193E0EE0FFF1F9A9599
:10264000E1F7E95EFE4F81819281805A9D4F2081A2
:1026500030E04217530708F49A01A9010E94BA26F4
:10266000CE010E94391FD82E8823D1F00115110503
:10267000B9F083E0CC0FDD1F8A95E1F7FE01E95E3A
:10268000FE4F438150E00417150708F4A801C95E06
:10269000DE4F6C817D81605A7D4FC7010E94BA2652
:1026A0008D2DCDB7DEB7E7E00C9489260E9450143B
:1026B00008950E9467140895A4E0B0E0E2E6F3E113
:1026C0000C94702660917502709176028091770269
:1026D000909178020E94231D11E0643671058105F6
:1026E000910518F10E94D1106E5F7F4F8F4F9F4F61
:1026F00069837A838B839C8310E000E030E020E0E4
:1027000044E050E0BE016F5F7F4F82E00E940E13F5
:10271000182F882351F00E94A71D609375027093B3
:1027200076028093770290937802812F2496E4E0DA
:102730000C948C26B0E0A0E0E0EAF3E10C946A2669
:102740007C015B016A010E94CB1201E010E088234A
:1027500011F00AE010E0C1E0D0E0B501C701F601D8
:102760000995811104C021960C171D072CF4CDB7D3
:10277000DEB7EAE00C948626CC9F9001CD9F300D09
:10278000300D112490E080E045E34A95F1F7000018
:10279000019682179307C1F7E0CFA5E0B0E0E3ED23
:1027A000F3E10C946A265B01E090CB01F090CC0140
:1027B00001E010E09E012B5F3F4F50E040E070E0F1
:1027C00060E080E00E940E13182F882309F44BC0AC
:1027D00067018FEFC81AD80A609171027091720276
:1027E00080917302909174020E94231D64367105DA
:1027F0008105910580F104E010E09E012F5F3F4FBD
:1028000050E040E070E060E081E00E940E13F82E9E
:1028100064E070E0C6010E947C1611E09D8198136F
:1028200010E01F2159F10E94A71D6093710270935F
:102830007202809373029093740289819A81AB81B2
:10284000BC8180936D0290936E02A0936F02B0934F
:10285000700211E013C064E070E0C6010E947C16B3
:102860009D818913C8CFF70181819281A381B481B1
:1028700089839A83AB83BC831111DFCF80916D0272
:1028800090916E02A0916F02B0917002F501808369
:102890009183A283B383812F2596EAE00C94862648
:1028A0000F931F93CF93DF93EC018B014DEC53E11A
:1028B0000E949A13882331F04CE553E1B801CE0110
:1028C0000E949A13DF91CF911F910F9108950F935A
:1028D0001F93CF93DF93C091CB01D091CC01CE0158
:1028E000019624E0FB01DC0101900D922A95E1F7AD
:1028F00064E070E00E947C1688836D817E818F8108
:1029000098850091690210916A0220916B023091C2
:102910006C02601771078207930751F06093690298
:1029200070936A0280936B0290936C020E94B410C1
:10293000DF91CF911F910F9108950E941F0E08956E
:102940000E94341D0E94F2200E94D70D0E940C218B
:102950000E940A0E0E9419210E941E210E949D14AD
:102960000E9438210E94E60DF7CF9093CF0180930B
:10297000CE010895FB012581222341F097FF06C077
:102980009F77BC0190E080E00E94FE1581E00895F1
:102990000F931F93CF93DF93EC018B01FB01858194
:1029A000882389F00E94E50B8272FE01E053FC4708
:1029B000E830F10540F4ED5DF84D0C945C26882379
:1029C00069F00E943015B801CE010E94BA14DF915F
:1029D000CF911F910F910895882399F30E942F158D
:1029E000F2CF80E00E942115EECF81E0FBCF82E0A4
:1029F000F9CF83E0F7CF84E0F5CF85E0F3CF909176
:102A0000B302923071F48A3050F490E009966AE093
:102A100070E00E944826875A0E94FD04089586505F
:102A2000FBCF0E94C51A089508950E9414150895B9
:102A30008CE090E00E94C3268093B3020E9415159B
:102A40000895CF93C82F8093B302682F8CE090E055
:102A50000E94E1268C2F0E941515CF9108950895AC
:102A600008950E94911B8093B2029091B30291301D
:102A700029F481FF03C089E30E94FD040E94E50B55
:102A80008093B4020E94F80B0E94080C8091B3025C
:102A9000823021F158F48823C1F08130D1F08FE3E6
:102AA0009CE90197F1F700C000000895843051F1CE
:102AB0008530A9F78BE191E00E94A80285E290E0C1
:102AC0000E94A80288E290E006C082EE0E9469049B
:102AD000E6CF88E193E00E94A802E1CF8091B202A4
:102AE00080FD03C083E50E94FD0482EE0E9469041C
:102AF0008FE39CE90197F1F700C0000087E50E9491
:102B0000FD04CDCF86EE0E94FD0488E1F8CF8091D0
:102B1000B302823011F148F4882381F0813091F0C2
:102B20008091B4020E94F50B08958430F9F085304D
:102B3000B9F788E290E00E94A802F2CF82EE0E94EC
:102B4000B204EECF8CE20E94FD048091B20281FFBC
:102B5000E7CF89E30E94FD04E3CF82EE0E94B20436
:102B60008091B20280FDDCCF83E5F4CF88E2F2CF22
:102B70008F929F92AF92BF92EF92FF920F931F930B
:102B8000CF93DF934B015C01D091B3028CE1E82E2F
:102B9000F12C07E010E021E0D501C4010E2C04C0A7
:102BA000B695A795979587950A94D2F7C82FCF70B9
:102BB000222339F0D43051F4CA3040F080E00E9432
:102BC000FF148C2F0E94FF1420E005C0C111F9CF23
:102BD00004301105B4F30150110984E0E81AF1083A
:102BE0000F3F1007C9F6DF91CF911F910F91FF9012
:102BF000EF90BF90AF909F908F900895CF92DF920B
:102C0000EF92FF926B017C01C114D10481E1E806CF
:102C1000F104A0F5C114D10481E0E806F10420F02C
:102C20008091B302823051F10E943115C114D10458
:102C300081E0E806F10438F18091B302811123C0EC
:102C400081E0E81AF108C701B6012AE09695879558
:102C5000779567952A95D1F778528F4F9F4F0E94AD
:102C6000B81583E0D822EE24FF24C701B6017452C0
:102C70008F4F9F4F0E94B8150E948715FF90EF90CD
:102C8000DF90CF900895C701B601F4CF0E94DA0C0F
:102C90000895CF930E94A912C4E08111C0E08C2F47
:102CA0000E94071121E030E002C0220F331FCA95B5
:102CB000E2F790E02823392381E0232B09F480E018
:102CC000CF9108950E9426122FEF86E791E02150C0
:102CD00080409040E1F700C000000E9426120E9450
:102CE0004916882321F00E9446160E94D71D089598
:102CF0000E94621608950895FC01680F791F8FEFF6
:102D000091E3E617F70709F408952191822728E057
:102D100030E087FF06C0880F892721503109C9F7A5
:102D2000F0CF880FFACFCF93DF93EB0186319C472A
:102D300011F50E94E50B9D81992399F08A7A91E023
:102D400009F490E090937902811109C089E20E9410
:102D5000471C0E94770C80E0DF91CF91089585E3B6
:102D6000F6CF80917902811104C089E20E944F1C44
:102D7000F0CF85E3FBCF81E0EFCFCF93DF93EC0182
:102D8000FB018581882309F4D2C09E01305723328C
:102D9000310508F0B2C00E94FD0C90939B02809315
:102DA0009A02FE01E150F047E232F10520F4E55DC0
:102DB000F84D0C945C2680919A02816080939A026F
:102DC00093C080919B02886080939B028DC080910C
:102DD0009A028260F3CF80919A028460EFCF809153
:102DE0009A028860EBCF80919B028160EDCF809149
:102DF0009B028260E9CF80919A028061DFCF80914F
:102E00009A028062DBCF80919A028064D7CF0E94C1
:102E1000690780919A028068D1CF80919A028C6074
:102E2000CDCF80919B028360CFCF80919A028E7F1D
:102E3000C5CF80919B02877FC7CF80919A028D7FFB
:102E4000BDCF80919A028B7FB9CF80919A02877F04
:102E5000B5CF80919B028E7FB7CF80919B028D7FF3
:102E6000B3CF80919A028F7EA9CF80919A028F7DF5
:102E7000A5CF80919A028F7BA1CF0E946907809194
:102E80009A028F779BCF80919A02837F97CF809110
:102E90009B028C7F99CF80919A0282FB992790F9AF
:102EA00021E0922790FB82F990FB83F987CF8091F4
:102EB0009B02982F909591708E7F892B90FB81F9C2
:102EC00083CF90919A02892F8F7B96FF806476CF73
:102ED0000E94690790919A02892F97FB87F9805881
:102EE0006DCF81E00E94830D80919A0290919B02A8
:102EF0000E94020D0E94690780E0DF91CF91089542
:102F000080E0F0CF90919A02892F8F7E94FF8061AC
:102F100055CF90919A02892F8E7F90FF81604ECF7E
:102F200090919B02892F877F93FF88604DCF81E02E
:102F3000E4CF282F35EB2303C001112497FF04C0F1
:102F400080589109892F089580589F4FFBCF809119
:102F5000800280FF0DC06091340170E0660F771F22
:102F60006038710570F56115710569F1862F089556
:102F700081FF07C06091340184E0689FB001112493
:102F8000EFCF6091340182FD0AC080917F028823D7
:102F9000A9F02091330160913401821710F088E08C
:102FA000ECCF869FC001112433E0880F991F3A951A
:102FB000E1F7622F70E00E944826D2CF68E070E00F
:102FC000D5CF8FE7089581E008958091800280FF3A
:102FD0000CC06091300170E07595679575956795A7
:102FE0006115710549F1862F089581FF06C0609132
:102FF000300170E075956795F3CF6091300182FDE7
:103000000BC090917E029923A1F060912F018091D5
:103010003001961738F0682F70E06038710500F3C2
:103020008FE70895899FC001112470E00E9448260F
:10303000F4CF61E070E0D7CF81E008958D3C31F4AA
:103040000E94A71781958093840208958E3C19F4FD
:103050000E94A717F8CF8F3C31F40E94A7178195E3
:10306000809383020895803D19F40E94A717F8CF3A
:10307000893D29F40E94E5178093850208958A3DD1
:1030800021F40E94E5178195F7CF8B3D31F40E9422
:10309000E51781958093860208958C3D19F40E946E
:1030A000E517F8CF9FE2980F983070F4815D990B87
:1030B00021E030E001C0220F8A95EAF78091820278
:1030C000822B8093820208958D3D31F4809180029D
:1030D00081608093800208958E3D21F4809180026A
:1030E0008260F7CF8F3DB9F7809180028460F1CF85
:1030F000409183028D3C59F48091840287FF0DC07A
:103100001092840241110BC010927F0208C08E3CC5
:1031100081F48091840218169CF3442381F08091FD
:10312000850290918602892B09F05AC010927E0286
:1031300008958F3C49F447FFF0CF109283028091AD
:1031400084028111ECCFE0CF803D19F41416ACF36A
:10315000E4CF90918502893D29F41916F4F6109276
:103160008502DBCF8A3D19F497FFD7CFF8CF909136
:1031700086028B3D29F497FFD0CF10928602CDCFE7
:103180008C3D19F41916CCF3C8CF9FE2980F9830F4
:1031900090F4815D990B21E030E0B90102C0660F27
:1031A000771F8A95E2F7CB0180959091820289235F
:1031B00080938202B2CF8D3D31F4809180028E7F68
:1031C00080938002AACF8E3D21F4809180028D7F72
:1031D000F7CF8F3D09F0A1CF809180028B7FF0CF98
:1031E00008950E949B1D9C0190918302809184020E
:1031F000982B21F030937D0220937C0290918502E0
:1032000080918602982B21F030937B0220937A02E2
:1032100081E892E00E949F1B089586E0E1E8F2E0D9
:10322000DF011D928A95E9F710927F0210927E02CB
:10323000109280020895FC01828181110EC0838169
:1032400081110BC08481811108C091E085818111B9
:1032500001C090E0892F8170089581E0FCCFA6E045
:10326000B0E0E5E3F9E10C94712686E0E1E8F2E0F4
:10327000DE01119601900D928A95E1F7109283027A
:103280001092840210928502109286028B819C819A
:10329000892B89F080917C0290917D020E94191DFA
:1032A000AC0190917F029923C9F180913501841777
:1032B000150608F440C08D819E81892B91F0809184
:1032C0007A0290917B020E94191DAC0190917E02BE
:1032D000992309F46AC0809131018417150608F416
:1032E00072C0BE016F5F7F4F81E892E00E94621C56
:1032F000811105C081E892E00E941B1981110E9492
:10330000F11886E0FE013196A1E8B2E001900D923D
:103310008A95E1F72696E3E00C948D2620913601FC
:103320008AE0289F900111242417350720F69F5F1B
:1033300090937F0202C09F3FD1F71B81112359F068
:103340000E94A7179FEF11160CF491E0899F802D22
:103350001124809383021C81112359F00E94A71726
:103360009FEF11160CF491E0899F802D112480931A
:10337000840280918302882309F49DCF10918402F6
:10338000112309F498CF0E949917882351F0809354
:103390008302812F0E949917882329F08093840249
:1033A0008ACF81E0F4CF81E0F9CF209132018AE029
:1033B000289F900111242417350708F092CF9F5FB2
:1033C00090937E0202C09F3FD1F71D81112359F0D7
:1033D0000E94E5179FEF11160CF491E0899F802D54
:1033E0001124809385021E81112359F00E94E51754
:1033F0009FEF11160CF491E0899F802D112480938A
:10340000860280918502882309F46BCF1091860291
:10341000112309F466CF0E949917882351F08093F5
:103420008502812F0E949917882329F080938602B4
:1034300058CF81E0F4CF81E0F9CFB0E0A0E0E3E243
:10344000FAE10C946B26E82FF0E0E451FE4FB490C3
:10345000282F26952695269530E0F901E457FD4F53
:103460000491877010E0082E02C0159507950A9404
:10347000E2F701701127F901E458FD4FE490F12CB7
:10348000082E02C0F594E7940A94E2F791E0E9224D
:10349000FF24F901E459FD4FC491D0E002C0D59555
:1034A000C7958A95E2F7C170DD27C62ED12C01158C
:1034B000110549F5E114F10431F086EE0E9469042A
:1034C000C601009771F5B6018B2D0E94E504C60177
:1034D000009779F5E114F104A1F50115110531F01A
:1034E00081EE0E94B204C6010097C9F5CD2B31F0E0
:1034F0008CE20E94FD04C114D104C9F5CDB7DEB73A
:10350000E9E00C94872681EE0E946904C6010097C9
:1035100089F2EFE9FFE03197F1F700C00000019771
:10352000F6CFEFE9FFE03197F1F700C00000019717
:10353000C8CFEFE9FFE03197F1F700C00000019735
:10354000C7CF86EE0E94B204C601009731F2EFE9C0
:10355000FFE03197F1F700C000000197F6CFEFE9E7
:10356000FFE03197F1F700C000000197BDCF8FE970
:103570009FE00197F1F700C0000091E0C91AD1085F
:10358000BACF60E00E941D1A0895982F9F709A503C
:10359000963020F0805D0E94C11A0895895AFBCFB1
:1035A0000F931F93CF93DF93C42FD22FFC018581FC
:1035B0008823C9F0409389020E949B1D9093880242
:1035C0008093870280E28C0F883040F4C77081E0DE
:1035D00001C0880FCA95EAF70E940605DF91CF91D6
:1035E0001F910F91089510918902141332C0809198
:1035F0008702909188020E94191D883C910548F528
:10360000C0E2CD0F1D17B9F080E2810F883040F481
:10361000177081E001C0880F1A95EAF70E940D0526
:10362000C83048F481E09D2F977001C0880F9A95AB
:10363000EAF70E940605802F0E94FD04C83070F64C
:10364000D77081E001C0880FDA95EAF70E940D0576
:10365000C5CF80E28C0F883008F6C77081E001C0CA
:10366000880FCA95EAF7F2CF0F93DB0188519C4788
:1036700087309105A0F5FC01E35BF84D0C945C26C6
:1036800006E221EE41EE6AE17CE7CD010E94D01A0C
:1036900080E00F91089507E225EE45EE6BE17CE7AF
:1036A000F4CF06E221EE40EE68E17CE7EECF07E2E0
:1036B00025EE44EE69E17CE7E8CF06E221EE42EE3A
:1036C0006CE17CE7E2CF07E225EE46EE6DE17CE7B8
:1036D000DCCF08E221E045EE6EE17CE7D6CF15961F
:1036E0008C91882319F010928902D3CF81E0D1CF39
:1036F0009093900280938F0208950E94AC128111E2
:1037000003C080918A020895E0918F02F0919002A7
:10371000309729F00190F081E02D0995089580E01F
:1037200008950E947D1B0895E0918F02F091900210
:10373000309721F00280F381E02D09950895E09102
:103740008F02F0919002309739F022E0DC012C9347
:103750000680F781E02D09950895A3E0B0E0E3EB42
:10376000FBE10C94722620918D0230918E02281775
:103770003907A1F090938E0280938D02E0918F0221
:10378000F0919002309751F023E029839B838A8344
:103790000084F185E02DCE01019609952396E2E0A3
:1037A0000C948E26A3E0B0E0E8EDFBE10C947226C9
:1037B00020918B0230918C0228173907A1F0909349
:1037C0008C0280938B02E0918F02F09190023097EF
:1037D00051F024E029839B838A830084F185E02DC6
:1037E000CE01019609952396E2E00C948E26409135
:1037F0000001509101019A012E5F3F4F485F5F4FDA
:1038000080E02417350709F40895F90191919F018B
:103810009923B9F38F5FF5CF882371F020910001D0
:1038200030910101F9013296285F3F4F919198172D
:1038300029F0E217F307D1F780E0089581E00895B9
:103840009C01FC0132969FEF80E04191461751F0B8
:103850009F3F19F4411101C0982F8F5F8630A9F75F
:103860009F3F09F40895290F311D97FD3A95F901FD
:1038700062830895FC01329608962191261303C0B5
:10388000DF0111971C92E817F907B9F70895682F1F
:1038900080910001909101010E94201C0895682FE1
:1038A00080910001909101010E943A1C0895E091DD
:1038B0000001F0910101329686E0DF011D928A95A8
:1038C000E9F70895DC01FB0111969C911197818124
:1038D000981322C012968C911297882319F0928126
:1038E00089131AC013968C911397882319F093812A
:1038F000891312C015968C911597882319F095811C
:1039000089130AC014969C91992321F081E02481A7
:10391000291303C080E001C081E0817008950895FB
:103920000E948F1C089581110EC081E080933A019E
:1039300060913701709138018091390190913A017D
:103940000E94901C089582E0F1CF83E080933A01B9
:1039500060913701709138018091390190913A015D
:103960000E94901C08950E94931C089581E080930A
:103970003A0160913701709138018091390190913D
:103980003A010E94901C08950E94B61C089591E08F
:10399000811101C090E090933901609137017091DD
:1039A00038018091390190913A010E94901C08954C
:1039B00080913901089580933801609137017091A9
:1039C00038018091390190913A010E94901C08952C
:1039D000809138010895809337016091370170918B
:1039E00038018091390190913A010E94901C08950C
:1039F000809137010895089508950E94FC1C089550
:103A0000089508950E94FB1C0895CF930E94001D05
:103A10000E9426120E94011DC0E08C2F0E940711F7
:103A2000811105C0CF5FC830C1F7CF91089581E003
:103A3000FCCFCF93DF93EC010E949B1D8C1B9D0B51
:103A4000DF91CF910895CF92DF92EF92FF926B01B9
:103A50007C010E94A71D6C197D098E099F09FF90AA
:103A6000EF90DF90CF90089585B7806885BF85B7C8
:103A7000806885BF08951F921FB61F9211248F93EF
:103A80009F93AF93BF9380919102811113C0809156
:103A9000B5029091B602A091B702B091B8024196DA
:103AA000A11DB11D8093B5029093B602A093B702F9
:103AB000B093B802BF91AF919F918F911F901FBE9D
:103AC0001F9018958091BD02843031F10E94E0036F
:103AD0001092910288E190E020E40FB6F894A89546
:103AE000809360000FBE2093600083B7817F846065
:103AF00083BF83B7816083BF7894889583B78E7FB7
:103B000083BF0FB6F894A895809160008861809378
:103B10006000109260000FBE08950E9469070E9425
:103B2000E703089582E084BD93E095BD9AEF97BDC9
:103B300080936E0008952FB7F8948091B50290910C
:103B4000B602A091B702B091B8022FBF08952FB767
:103B5000F8946091B5027091B6028091B70290918D
:103B6000B8022FBF089578941F921FB61F92112498
:103B70008F939F93AF93BF938091B5029091B602BC
:103B8000A091B702B091B8020196A11DB11D80931A
:103B9000B5029093B602A093B702B093B802BF915A
:103BA000AF919F918F911F901FBE1F90189587E72F
:103BB00097E7909301088093000888E19AE00FB698
:103BC000F894A895809360000FBE90936000FFCF9B
:103BD00088E19AE00FB6F894A895809360000FBE34
:103BE00090936000FFCF8EE14A9B02C08150E1F7C5
:103BF0004A9BFECF08955A9880E28A95F1F75A9A27
:103C00000895FC013BE03A95F1F798E020E080E070
:103C100031E040E14A95F1F7880F4A9B02C081608C
:103C2000232742E04A95F1F7000040E14A95F1F779
:103C3000915079F790E19A95F1F799B132E03A9580
:103C4000F1F7000040E14A95F1F792FB992790F9CE
:103C500092272081920F90830895A1E0B0E0E3E3E2
:103C6000FEE10C946E2619828C017C01E60EF11C9B
:103C70000E151F0541F481E09981911180E0219694
:103C8000E6E00C948A260E94F31DCE0101960E9464
:103C9000011EF80181938F01EBCF529A5A9A089531
:103CA00052985A9AEA9AE9E6F0E080818F7C808304
:103CB00008956150770B91E001C0990F6A95EAF77A
:103CC00020E031E0911108C0222391F05A9A80E25D
:103CD0008A95F1F75A980895492F482339F05A9A4E
:103CE000232740E24A95F1F79695ECCF5A98F9CF01
:103CF0005A98EDCFFF920F931F93CF93DF93EC0170
:103D00008C01060F111DC017D10729F4CDB7DEB7FE
:103D1000E5E00C948B26F9900E94FB1D68E08F2D46
:103D20000E94591EF0CF1F920F920FB60F921124CE
:103D30000F931F932F933F934F935F936F937F93B3
:103D40008F939F93AF93BF93EF93FF93CF93DF93A3
:103D50000F92CDB7DEB719820E94F31DCE010196F6
:103D60000E94011E082F069506950695282F22957C
:103D70002570902F9570290F922F93702695269578
:103D8000920F982797708981982B09F05CC00430B6
:103D900008F059C080E18A95F1F75A9A529A82E068
:103DA0008A95F1F700C05A9888E0089F8001112495
:103DB000D801A95EBE4F1696ED91FC9117973097EA
:103DC000A9F06091CB017091CC0114962D913C919A
:103DD0001597260F371F11968D919C911297680F9A
:103DE000791F13964C9113978C910995F801E95E10
:103DF000FE4F6381662351F02091CB013091CC01BD
:103E000084819581820F931F0E947A1E0E94FB1D60
:103E100080E18A95F1F75A9852985A9A80E18A95EA
:103E2000F1F7F801E95EFE4F6081662351F02091C1
:103E3000CB013091CC0181819281820F931F0E942E
:103E40002D1E0E94F31D0F90DF91CF91FF91EF91F6
:103E5000BF91AF919F918F917F916F915F914F91A2
:103E60003F912F911F910F910F900FBE0F901F90B8
:103E700018950F931F93CF93DF93EC0104970CF0E9
:103E80004CC0F894529A5A9885E08A95F1F7000050
:103E90009C2F969595708C2F8570980F892F837025
:103EA0009695969523E0CC0FDD1F2A95E1F7980FA4
:103EB0008E01092B0E94FB1D00C068E0802F0E942C
:103EC000591E80E18A95F1F752985A9A4A9B1EC072
:103ED00087E090E04A991CC0FE01E95EFE4F6381D5
:103EE0006623F9F02091CB013091CC01848195813A
:103EF000820F931F0E942D1E811113C0529A5A9A4D
:103F00007894DF91CF911F910F91089500C0DECF7B
:103F1000019729F4529A5A9A789480E0F2CF00C01F
:103F2000D9CF0E94F31D80E28A95F1F75A98529AF0
:103F300080E18A95F1F7C95EDE4F6881662351F012
:103F40002091CB013091CC0189819A81820F931FFE
:103F50000E947A1E0E94FB1D789481E0D2CF0895C2
:103F60009B01BA019091BD029430E9F48F70809367
:103F7000E9009FEF8091E800915085FD06C085ED36
:103F80008A95F1F700009111F5CF8091E80085FF47
:103F90000AC050E040E0C9010E94AF218091E800D2
:103FA0008E778093E800089543E050E0BC0182E002
:103FB0000E94B01F089546E050E0BC0182E00E94DC
:103FC000B01F0895CF93DF93EC010E94D81C48E006
:103FD00050E0BE0181E00E94B01F88E0FE01A2E92E
:103FE000B2E001900D928A95E1F7DF91CF910895AB
:103FF0008091BC02811109C00E943F230E949C2332
:104000008091E20084608093E20008951092BC02E7
:1040100008950E94B61C81E00E94C71C089560911B
:10402000B90281E0611101C080E00E94A51C0895E1
:104030009091BD0281E0943009F080E06091B90276
:104040000E94B31C089542E061EC81E00E94BB2213
:1040500042E261EC82E00E94BB229091BD0281E0CD
:10406000943009F080E06091B9020E94931C089599
:104070008091BF02833009F461C030F48130D1F106
:10408000823009F49EC008958A3009F48AC08B30CA
:1040900009F46FC0893009F050C08091BE028132AE
:1040A00009F04BC08091C2029091C302029708F0C0
:1040B00044C08091E800877F8093E8008091E80009
:1040C00082FF37C09091F3008091F200029731F4A3
:1040D0008091F100813011F0863021F48091F1005F
:1040E0000E94DB1C8091E8008B778093E8000E949F
:1040F000EF2223C08091BE02813AF9F48091E8005A
:10410000877F8093E8008091C2029091C302892B3F
:1041100061F468E082E992E070E00E94FE21809103
:10412000E8008B778093E800089560E090E080E0FD
:10413000F3CF8091BD028111C1CF08958091BE025D
:10414000813AD9F78091C2029091C302892BA9F7D5
:104150008091E800877F8093E8008091E80080FFED
:10416000FCCF0E94D81C8093F1008091E8008E77EC
:10417000BCCF8091BE02813201F78091C202909142
:10418000C302892BD1F68091E800877F8093E800F5
:104190000E94EF228091C0020E94C71C0E94690702
:1041A00008958091BE02813241F68091E800877FB8
:1041B0008093E8000E94EF228091C1020E94EB1CD4
:1041C00008958091BE02813A09F0B7CF8091E8004E
:1041D000877F8093E8008091E80080FFFCCF0E94F9
:1041E000F81CC1CF84B7877F84BF0FB6F894A89519
:1041F00080916000886180936000109260000FBE23
:1042000080E890E00FB6F89480936100909361008D
:104210000FBE0E94C41C08950E943F230E949C234D
:10422000E2EEF0E080818460808378940E941B2617
:1042300008958BE391E00E94781B08958091BD0260
:10424000853031F48091BD02853019F00E948D1DBA
:1042500008950E94621D0E94051D882399F3809194
:10426000BB02882379F30E9499210E946907EACF53
:1042700008959A014091C4025091C5020E944121C3
:104280000895492F55274330510519F168F44130FD
:10429000510509F444C04230510509F445C090E08D
:1042A00080E050E040E025C04132510549F1423202
:1042B0005105A9F784E490E04EE853E061157105DB
:1042C000C1F08BE790E043E153E06130710589F084
:1042D000E6CF99278130910581F0009729F0029768
:1042E000F1F6ECE9F2E002C0E2ECF2E0849190E059
:1042F000AF01F901518340830895E8EBF2E0F6CF76
:1043000089E090E048ED52E06115710591F389E094
:1043100090E041EF52E06130710559F3C0CF82E186
:1043200090E041E053E0E5CF8BE390E046EC52E0D3
:10433000E0CF80E189BD82E189BD09B400FEFDCFF7
:104340008091D8008F7D8093D8008091E0008260BA
:104350008093E0008091E00081FDFCCF0895AF9252
:10436000BF92CF92DF92FF920F931F93CF93DF9371
:104370006C01EB018A010E940E23F82E811123C0EB
:104380000115110539F0F80180819181C81BD90B05
:10439000C80ED91EB12CA12C2097A9F08091E8005D
:1043A00085FD22C08091E8008E778093E80001159A
:1043B0001105A1F0F80180819181A80EB91EB1828A
:1043C000A08285E0F82E8F2DDF91CF911F910F9164
:1043D000FF90DF90CF90BF90AF9008950E940E2382
:1043E0008823D1F2F82EEFCFF60181916F018093EF
:1043F000F1002197FFEFAF1ABF0ACECFFC018091E9
:10440000C4029091C50286179707A0F06115710547
:1044100029F49091E8009E779093E80090E0611570
:10442000710551F4911108C08091E80082FF34C0F9
:1044300080E00895BC01F2CF8091BD028823C1F1D4
:104440008530C1F18091E80083FD30C08091E800A3
:1044500082FDEACF8091E80080FFE1CF8091F300F8
:104460002091F200382F6115710519F028303105BF
:1044700058F091E02830310509F090E02091E800F3
:104480002E772093E800CBCF81918093F10061508B
:1044900071092F5F3F4FE7CF8091BD02882341F024
:1044A000853041F08091E80083FFBECF81E0089520
:1044B00082E0089583E00895FC018091C402909108
:1044C000C50286179707A0F06115710529F4809140
:1044D000E8008E778093E80090E06115710551F453
:1044E000911108C08091E80082FF35C080E00895F6
:1044F000BC01F2CF8091BD028823C9F18530C9F19A
:104500008091E80083FD31C08091E80082FDEACF10
:104510008091E80080FFE1CF8091F3002091F200CC
:10452000382F6115710519F02830310558F091E0E8
:104530002830310509F090E08091E8008E77809373
:10454000E800CBCF84918093F100319661507109DE
:104550002F5F3F4FE6CF8091BD02882341F0853029
:1045600041F08091E80083FFBDCF81E0089582E0B3
:10457000089583E00895982F973028F08F708093E6
:10458000E90081E008959093E900242F762F50E010
:10459000981731F07091EC002091ED005091F000EF
:1045A00021FD02C09F5FE8CF3091EB003E7F30934A
:1045B000EB003091ED003D7F3093ED003091EB004A
:1045C00031603093EB007093EC002093ED0050933A
:1045D000F0002091EE0027FDE5CF80E00895809166
:1045E000BE0287FF13C08091E80082FF06C0809161
:1045F000E8008B778093E80004C08091BD028111B0
:10460000F2CF08958091BD028823D9F38091E8000C
:1046100080FFF8CF8091E8008E77ECCF2091E40006
:104620003091E50095E6A9012091EC00822F817080
:1046300020FF06C08091E80080FF06C080E008955A
:104640002091E80022FD1AC08091BD02882389F0E4
:10465000853089F08091EB0085FD0FC02091E4004A
:104660003091E50042175307F9F29150E1F684E0EA
:10467000089582E0089583E0089581E008950E94FE
:10468000AE230E94B623E0EEF0E08081816080835B
:10469000E8EDF0E080818F77808319BCA7EDB0E072
:1046A0008C918E7F8C9380818F7E80831092BC0250
:1046B00008950F931F93CF93DF930E94AE230E9420
:1046C000B623C8EDD0E088818F77888388818068A1
:1046D000888388818F7D888319BC1092BD021092D7
:1046E000B9021092BB021092BA0200EE10E0F8017B
:1046F00080818B7F808388818160888342E060E055
:1047000080E00E94BB22E1EEF0E080818E7F80831A
:10471000E2EEF0E080818160808380818860808328
:10472000F80180818E7F8083888180618883DF911A
:10473000CF911F910F910895E8EDF0E080818F7E79
:104740008083E7EDF0E080818160808384E082BF38
:1047500081E08093BC020E9459230895E8EDF0E0C7
:1047600080818E7F80831092E20008951092DA009B
:104770001092E10008951F920F920FB60F9211242C
:104780002F933F934F935F936F937F938F939F9359
:10479000AF93BF93EF93FF938091E10082FF0BC033
:1047A0008091E20082FF07C08091E1008B7F8093BF
:1047B000E1000E941A268091DA0080FF19C08091E2
:1047C000D80080FF15C08091DA008E7F8093DA00D8
:1047D0008091D90080FF96C080E189BD82E189BDCA
:1047E00009B400FEFDCF81E08093BD020E94F81F56
:1047F0008091E10080FF19C08091E20080FF15C028
:104800008091E2008E7F8093E2008091E2008061DF
:104810008093E2008091D80080628093D80019BC18
:1048200085E08093BD020E940F208091E10084FF0B
:104830002BC08091E20084FF27C080E189BD82E126
:1048400089BD89B5982F917080FFFBCF8091D800EA
:104850008F7D8093D8008091E1008F7E8093E1006E
:104860008091E2008F7E8093E2008091E20081607F
:104870008093E2008091B902882309F449C084E062
:104880008093BD020E9418208091E10083FF29C01F
:104890008091E20083FF25C08091E100877F8093B3
:1048A000E10082E08093BD021092B9028091E100A4
:1048B0008E7F8093E1008091E2008E7F8093E20002
:1048C0008091E20080618093E20042E060E080E05D
:1048D0000E94BB228091F00088608093F0000E94CB
:1048E0000920FF91EF91BF91AF919F918F917F919F
:1048F0006F915F914F913F912F910F900FBE0F904D
:104900001F90189519BC1092BD020E94062070CF0E
:104910008091E30087FD93E09093BD02B3CF1F9297
:104920000F920FB60F9211242F933F934F935F93E3
:104930006F937F938F939F93AF93BF93CF93DF93A7
:10494000EF93FF93D091E900DF708091EC00C82FC6
:10495000C17080FDC0E81092E9008091F000877F6F
:104960008093F00078940E94D3241092E900809103
:10497000F00088608093F000CD2BCF70C093E900E9
:10498000FF91EF91DF91CF91BF91AF919F918F9167
:104990007F916F915F914F913F912F910F900FBE3B
:1049A0000F901F901895AAE2B0E0E9EDF4E20C94A4
:1049B00071268EEB92E02091F100FC012193CF0152
:1049C000F2E0863C9F07B9F70E9438208091E8000A
:1049D00083FF1EC18091BE029091BF029A3008F001
:1049E00017C1E92FF0E0EC5AF84D0C945C268038A2
:1049F00099F0823809F00CC18091C2028F70873023
:104A000008F006C18093E9008091EB0085FB8827C0
:104A100080F91092E90006C08091BA029091BB0221
:104A2000911182609091E800977F9093E8008093C5
:104A3000F1001092F1008091E8008E77E5C08823A4
:104A400009F4D3C0823009F0E3C08091C002811123
:104A5000D6C08091C2028F702FEF280F263008F049
:104A6000D7C08093E9002091EB0020FFC8C09330AD
:104A700031F48091EB0080628093EB00C0C0909194
:104A8000EB0090619093EB0021E030E001C0220F39
:104A90008A95EAF72093EA001092EA008091EB00F1
:104AA0008860EACF8111B4C01091C0021F77809155
:104AB000E3008078812B8093E3008091E800877F7A
:104AC0008093E8000E94EF228091E80080FFFCCFF5
:104AD0008091E30080688093E30082E0111183E01D
:104AE0008093BD0295C08058823008F091C08091BB
:104AF000C0029091C1028C3D23E09207A1F583E0B2
:104B00008A838AE289834FB7F894DE01139620E006
:104B10003EE051E2E32FF0E050935700E49120FF94
:104B200003C0E295EF703F5FEF708E2F90E0EA30A8
:104B3000C0F0C7968D939D932F5F243159F74FBFD7
:104B40008091E800877F8093E8006AE270E0CE0100
:104B500001960E94FE218091E8008B778093E80007
:104B600057C0C096E7CF6091C2027091C302AE01F8
:104B70004F5F5F4F0E943921BC01892B09F448C067
:104B80009091E800977F9093E80089819A810E9434
:104B90005C22E1CF8038E1F58091E800877F809347
:104BA000E8008091B9028093F10045CF811130C0B7
:104BB0009091C002923060F58091E800877F8093E9
:104BC000E8009093B9020E94EF228091B9028823F5
:104BD00011F084E005C08091E30087FDFACF81E009
:104BE0008093BD020E94232013C08091C0028130B7
:104BF00079F481E0933009F080E08093BB02109259
:104C0000E9008091E800877F8093E8000E94EF220E
:104C10008091E80083FF0AC08091E800877F80933D
:104C2000E8008091EB0080628093EB00AA96E3E0BD
:104C30000C948D260895CF938091BD028823A1F016
:104C4000C091E900CF709091EC00892F817090FDA8
:104C500080E8C82B1092E9008091E80083FD0E9453
:104C6000D324CF70C093E900CF9108950E943F23D1
:104C70001092BD020895E8EDF0E0808180618083AC
:104C80008AE18A95F1F700C08091D900817008957A
:104C900097FB072E16F4009407D077FD09D00E94E9
:104CA000992607FC05D03EF4909581959F4F089575
:104CB000709561957F4F0895EE0FFF1F0590F49159
:104CC000E02D09942F923F924F925F926F927F92C4
:104CD0008F929F92AF92BF92CF92DF92EF92FF920C
:104CE0000F931F93CF93DF93CDB7DEB7CA1BDB0BB8
:104CF0000FB6F894DEBF0FBECDBF09942A8839885D
:104D000048885F846E847D848C849B84AA84B98463
:104D1000C884DF80EE80FD800C811B81AA81B9816F
:104D2000CE0FD11D0FB6F894DEBF0FBECDBFED0183
:104D30000895AA1BBB1B51E107C0AA1FBB1FA617E2
:104D4000B70710F0A61BB70B881F991F5A95A9F734
:104D500080959095BC01CD010895FB01DC0104C054
:104D60008D910190801921F441505040C8F7881B63
:104D7000990B0895FB01DC0102C001900D92415096
:104D80005040D8F70895F999FECF92BD81BDF89AA9
:104D9000992780B50895A8E1B0E042E050E00C9476
:104DA0000727DC01A40FB51F4150504048F0CB014C
:104DB000840F951F2E910E94E22641505040D0F75B
:104DC0000895262FF999FECF92BD81BDF89A0197DB
:104DD00000B4021639F01FBA20BD0FB6F894FA9A43
:104DE000F99A0FBE08950396272F0E94E2260E948B
:104DF000E126252F0E94E226242F0C94E22601961C
:104E0000272F0E94E2260C94E126DC01CB01FC0155
:104E1000F999FECF06C0F2BDE1BDF89A319600B413
:104E20000D9241505040B8F70895F894FFCF5505C2
:104E3000550593059305F7051306840584051806A3
:104E4000890698069806DF14EC14F114F514F7148B
:104E5000F914FB14FD14151789171D17E716EB1627
:104E60002117EF1625173117FB168217FF16351776
:104E700003173917611707173D1768170D174317E1
:104E80004B17F3162917F7162D1711174717571732
:104E900071178017E11619179017511B571B401BEC
:104EA0004B1B5D1B631B691BF7241F2508261F2551
:0C4EB0000826522573250826CA25D625A1
:104EBC003A02C6F7F6F5F431333236939190946694
:104ECC00973435FFFFFF01000000010000000000D7
:104EDC000000040100000004050000000000002890
:104EEC000850011E0A140100000100E81CE21FAF6B
:104EFC001FDB1FD41FF4F5F6F7C693363233319708
:104F0C00669490913534FFFFFFE200E900EA00B5AA
:104F1C0000B600B700CD008301CC008A0192019449
:104F2C00012102230224022502260227022A02B3AF
:104F3C0000B4006F0070009F01CB019F02A00281A2
:104F4C008283E200E900EA00B500B600B700CD00AC
:104F5C008301CC008A0192019401210223022402D4
:104F6C002502260227022A02B300B4006F0070004B
:0E4F7C009F01CB019F02A00281828360020090
:00000001FF
