:10000000E8C1000003C2000001C200000C94E61C1D
:10001000FDC10000FBC10000F9C10000F7C10000F4
:10002000F5C10000F3C100000C94CC210C9499227E
:100030000C94961BEBC10000E9C10000E7C1000071
:10004000E5C10000E3C10000E1C10000DFC1000024
:10005000DDC100000C940D1CD9C10000D7C1000007
:10006000D5C10000D3C10000D1C10000CFC1000044
:10007000CDC10000CBC10000C9C10000C7C1000054
:10008000C5C10000C3C10000C1C10000BFC1000064
:10009000BDC10000BBC10000B9C10000B7C1000074
:1000A000B5C10000B3C10000B1C1000014001A00C6
:1000B00008001500170004001600070009000A00D8
:1000C0001D221B0806241901050029412C420000AD
:1000D000000000001C0018000C00120013000B00B0
:1000E0000D000E000F0033021100101136243718D6
:1000F000383228432A0000000000000001000100FF
:1001000001000100010001000100D200D100010046
:100110000100010001000100010000002C000000AE
:1001200000000000AA00A900D900D2000100CF0001
:10013000CE00CD00D0000100DB00DA00D900DC00E9
:10014000010028002A00000000000000AC00A80008
:10015000A900AA00AB000100E100E300E200AE004C
:1001600035022D022E0234022F0229000000000069
:10017000000000004A004E004B004D000F005000F0
:10018000510052004F002B0030023102360237027C
:1001900001002800E0000000000000001E021F0215
:1001A0002002210222021E001F0020002100220046
:1001B00035002D002E0034002F00E1002C0000003F
:1001C0000000000023022402250226022702230049
:1001D00024002500260027003000310036003700BB
:1001E000330000002A0000000000000000000000B2
:1001F000000000002A2B2800000000000000000082
:100200000000000000000029000000002C1E342027
:10021000212224342627252E362D3738271E1F204D
:100220002122232425263333362E37381F04050692
:100230000708090A0B0C0D0E0F10111213141516D6
:100240001718191A1B1C1D2F3130232D35040506D4
:100250000708090A0B0C0D0E0F10111213141516B6
:100260001718191A1B1C1D2F3130354C00000000C7
:10027000000000000000000000000000000000007E
:10028000000000000000000000000000000000006E
:100290007E0F00D4FFFFFFC7000000781A0346005E
:1002A000650072007200690073002000730077001F
:1002B0006500650070000000080344005000420023
:1002C00000000403090409023B00020100A0FA092E
:1002D0000400000103010100092111010001224471
:1002E0000007058103080001090401000103000063
:1002F00000092111010001227B0007058203200073
:10030000011201000200000008ABC23939010001EE
:1003100002000105010902A10185020901A10005F0
:1003200009190129081500250195087501810205A3
:1003300001093009311581257F950275088106096B
:10034000381581257F950175088106050C0A38024C
:100350001581257F950175088106C0C005010980BA
:10036000A101850319012AB700150126B7009501DF
:1003700075108100C0050C0901A101850419012A2D
:10038000A002150126A002950175108100C005018B
:100390000906A101050719E029E7150025019508BF
:1003A000750181029501750881010507190029FF72
:1003B000150026FF0095067508810005081901291A
:1003C00005150025019505750191029501750391AB
:1003D00001C011241FBECFEFDAE0DEBFCDBF11E0B8
:1003E000A0E0B1E0E4E8FAE402C005900D92AE3C72
:1003F000B107D9F722E0AEECB1E001C01D92A63CF6
:10040000B207E1F70E9451130C94F924F9CD84301E
:10041000B8F46830A8F4453098F450E095E0699F4E
:10042000400D511D1124FA0198E2899FE00DF11D44
:100430001124EE0FFF1FE455FF4F8591949108950D
:1004400081E090E00895E3CF08959C013A9521154D
:100450003F4150F5FC01EE27F170BC016627727038
:10046000AC01442754709C012227387094FF0EC0C1
:1004700080E1EF2B09F480E0672B09F08062452BC7
:1004800009F08064232B89F08068089581E0EF2BC8
:1004900009F480E0672B09F08260452B09F0846045
:1004A000232B19F08860089580E00895CF93DF939F
:1004B000EB01CBDFFE010995DF91CF910895CF933A
:1004C000DF93EC01805E9109089720F064E976E003
:1004D000209711F461E974E0CE01E8DF8C2F92D10E
:1004E000DF91CF910895CF93DF93EC01D0D1CE016E
:1004F000805E9109089720F069E976E0209711F471
:1005000066E974E0CE01D2DFDF91CF9108950F93B9
:100510001F93CF93DF938C01EB01D1DF209739F448
:10052000C801E1DFDF91CF911F910F9108958FE90D
:100530009FE00197F1F700C000002197EFCF70E036
:1005400060E08933910511F460E570E0E0CF81E06F
:100550000895FDCF0895FBCF0895F9CF0895F7CF03
:100560000895FDCF089508950895FDCF0895089545
:100570000895A6E0B0E0EFEBF2E00C946C24498320
:100580005A839E833091D50189819A81311117C098
:100590003E81332389F0222379F011D5182F682F5B
:1005A00089819A81EBD469817A81812F0E94E90D3A
:1005B0002696E3E00C948824F2D4182FF4CFFFD4CD
:1005C00069817A81F3CFFC01262F408151816281BC
:1005D000738184819581CDCFCF93DF93EC0161E06E
:1005E000F2DFBE01B6DF882349F061E0CE01EBDF28
:1005F000BE01B1DF8170DF91CF91089580E0FACF25
:100600000F931F93CF93DF93EC0160E0DCDF8C014D
:10061000BE01AADFBE01C801A8DFDF91CF911F9103
:100620000F9108950F931F93CF93DF93EC0161E037
:10063000CADF8C01BE0191DF811106C080E0DF912D
:10064000CF911F910F910895BE01C8018ADF8823C1
:10065000A9F3BE01C8010E947413882379F3BE0177
:10066000C8010E949E19882349F3BE01C8010E9457
:100670004915882319F3BE01C8010E94211588235A
:10068000E9F2BE01C8010E94270F8823B9F2BE011A
:10069000C8010E94390F882389F2BE01C8010E9457
:1006A000520FCDCF21E030E0A90102C0440F551F09
:1006B0008A95E2F7CA019BC3CF93C82F81E090E0EF
:1006C0000C2E02C0880F991F0A94E2F70E94F10BCA
:1006D0008C2FE8DFCF91089581E00895FDCF089534
:1006E000FBCF0895CF93C82F3AD38C2FF7DF8C2FF1
:1006F000F7DF2FEF84E39CE0215080409040E1F74A
:1007000000C00000CF91089581E0ECDF0C94311C13
:1007100080E0E8DF0C94421C2ADF0E945E1B17C0B9
:1007200018D026DF0C94621B81E008950895CF93C2
:10073000DF93D82FF9DFC82F882311F08D2FF6DF34
:100740008C2FDF91CF9108950895F1CF089580E027
:10075000FCCF0E94E619F9CFCF930E94E619C82F6B
:100760008091D0018C1771F0C093D0010E94011CC0
:100770006093D1017093D2018093D3019093D401FF
:100780008C2FE3DFCF910895ADE0B0E0EAECF3E029
:100790000C946D24488759876A877B878C879D874F
:1007A000911132D71F8286E0FE013896DE01119644
:1007B00001900D928A95E1F78D8181110CC02981FC
:1007C0003A814B815C816D817E818F816AD62D96C5
:1007D000E2E00C948924CE010196FEDE8111EFCF78
:1007E000F6CFFC012481213019F48081918118C455
:1007F0000895662321F00E94A6160C9471170E949A
:10080000F816FBCFCF93C82F882389F08CEF8C0F7D
:10081000813A78F48C2F0E94801A882321F08C2F43
:100820000E94C11A59D78C2F0E94BB1A55D7CF915D
:10083000089580E28C0F883040F4C77081E001C0D9
:10084000880FCA95EAF7C0D6F1CFEBE5EC0FE3309D
:1008500040F4F0E0E157FE4F808190E00E941D1AC5
:10086000E6CFE8E5EC0FEB3150F4F0E0EE0FFF1FC0
:10087000E75AFE4F808191810E94441AD8CF83E3CA
:100880008C0F8331A0F661E08C2FB3DFD0CF8823AB
:1008900051F19CEF980F913A18F40E94C11A1CC7AD
:1008A00090E2980F983048F4877091E001C0990F5A
:1008B0008A95EAF7892F8ED6F2CF9BE5980F933071
:1008C00020F490E080E00C941D1A98E5980F9B317D
:1008D00020F490E080E00C94441A93E3980F933155
:1008E00010F460E086CF08951F93CF93DF93182F05
:1008F000EB0188DF209731F4812FC9DFDF91CF91A1
:100900001F9108958FE99FE00197F1F700C0000063
:100910002197F0CF70E060E0893311F460E570E07A
:10092000E3CF882311F050D6D7C60895882311F05D
:1009300051D6D2C60895B0E0A0E0E1EAF4E00C940C
:1009400066246C01D62FC72FFC0115810681029504
:100950000F7030D6E82E8823E9F0E12E1123D1F074
:100960008C2F807F803461F080E28D0F8830F8F02A
:100970008C2F807E803221F4D230C8F00023B9F071
:1009800080919B0282FF13C082E0C2D613D691E011
:10099000E82EE926BC2EB2949FE0B922FBE0FB15BD
:1009A00080F1EB2DF0E0E550FB4D0C945724E12C49
:1009B000F1CF0C2F0F70C07F11F00295007F112333
:1009C00081F0002349F080E28D0F883010F0D111C2
:1009D00005C0802FF9D580D68D2F40C0802F07D637
:1009E000FACF8D2F54DF002361F080E28D0F883025
:1009F00010F0D11103C0802FEDD502C0802FFDD59E
:100A00006BD6EB2DE850FF0B349708F04CC10E94D9
:100A1000E6199BDECDB7DEB7E9E00C9482242C2FDB
:100A20002F70F22EC07FC03219F0F29480EFF822BE
:100A3000DD2341F0D13081F1112309F439C00023C5
:100A4000C9F0CACF80919B0282FD10C0112341F0F2
:100A5000FF2019F08F2DB8D53FD680E0D3DED1CF5F
:100A600080E015DFFF2069F28F2DC6CF112359F0EA
:100A7000011103C08F2D55DFC4CF013009F0C1CF64
:100A80008F2DD6D5BECF0111BCCF8F2D4FDF8F2D2F
:100A9000DAD58F2DBFD5B5CF112321F0063008F060
:100AA000B0CFE8CF053008F0ACCF8F2D3FDFA9CF16
:100AB0000023D9F3D93349F43FEF87EE93E0315067
:100AC00080409040E1F700C000008D2FE0DE99CF1C
:100AD0008C2F86958695837069F0813009F091CFCF
:100AE0008D2F9C2F9370111102C080E090E00E9426
:100AF000441A87CF8D2F9C2F9370111102C080E074
:100B000090E00E941D1A7DCF612F8D2F72DE79CF6C
:100B10008C2F837081F5111174CF4D2F429546951E
:100B20004770440F440F2D2F2F7030E0042E02C069
:100B3000220F331F0A94E2F790E080E0D4FF09C04F
:100B40008FE090E002C0880F991F4A95E2F78095E8
:100B50009095C695C695C370822B932BC23039F001
:100B600040F4C13011F04CD14CCF43D14ACF4FD1DA
:100B700048CF3DD146CF8695112311F08C2F81703F
:100B8000882309F43ECF4D2F429546954770440F78
:100B9000440F2D2F2F7030E0042E02C0220F331F80
:100BA0000A94E2F790E080E0D4FF09C08FE090E083
:100BB00002C0880F991F4A95E2F780959095C695D7
:100BC000C695C370822B932BC23039F040F4C130EC
:100BD00011F071D116CF68D114CF74D112CF24D1B6
:100BE00010CFCF70112321F08C2F32D18D2F43CF16
:100BF0008D2F9CDE8C2F3AD104CFD23F39F160F497
:100C0000D03FB9F0D13F81F0112309F43CC001116C
:100C1000E3CE8C2F8F711EC0D33FF1F0D43FA1F7EC
:100C200080919B0282FD20C08C2F8F71112319F3BC
:100C300011C0112339F0053008F0E3CE8C2F8F71ED
:100C400025D1DFCE063008F0DCCEF8CF8C2F8F71A7
:100C50001111D1CFFDD0D5CE112321F08C2F8F7162
:100C6000EDD0CFCEE8D0CDCE112329F063E08C2F8C
:100C70008F7137D5C6CE81E04BD5023008F4C1CE96
:100C800082E046D5BECE002359F0D93309F01DCFFE
:100C9000EFEFF7EE23E0E150F0402040E1F713CF13
:100CA0008C2F8F71A8CFEE2009F4B4CE7FD480FDB5
:100CB000B1CEF601158274D4CBD0C60117D070D452
:100CC000D5D0A8CE0F931F93CF93DF93EC0168810B
:100CD00079818D81AED18C01FCD088D0B801CE0154
:100CE0002ADEDF91CF911F910F910895CF93DF936B
:100CF000EC018C81882381F0CE0194DC81110FC03E
:100D000059D4882349F08D81882331F080919B024A
:100D100082FF02C082E0FCD4DF91CF910895CE0122
:100D2000D1DFCE016DDCF8CF882311F060D4D4C4BC
:100D30000895882311F061D4CFC4089590E080E035
:100D40000E941D1A90E080E00E94441A5DD4C4D431
:100D50000E948A170C9471170E94C71AEFCF44D4CF
:100D6000FBCF92959F70963091F058F4925F9F70F0
:100D7000923058F4803F19F030F4883E30F481E02E
:100D800008959A5FF4CF843FD1F380E00895883EC0
:100D9000B0F3813FD1F7F3CFFC012481222321F06E
:100DA000808191813DD1DDCF80E00895A6E0B0E063
:100DB000ECEDF6E00C946D242696E2E00C94892488
:100DC000A7E0B0E0E6EEF6E00C946D242796E2E0B2
:100DD0000C9489240895FECF0895FDCF0895FADF7D
:100DE000FCDF9093ED018093EC0108950895F7CF17
:100DF00008952091EC013091ED01822B932BEFCFE0
:100E00002091EC013091ED0182239323E8CF2091D2
:100E1000EC013091ED0182279327E1CFDBCF0895DC
:100E2000FDCF0895D7CF0895FDDFFADF9093EB0152
:100E30008093EA01089590E080E0F6CF21E030E071
:100E4000A90102C0440F551F8A95E2F7CA01ECCFF1
:100E500021E030E002C0220F331F8A95E2F7809133
:100E6000EA019091EB01822B932BDECF21E030E061
:100E700002C0220F331F8A95E2F7209530958091AA
:100E8000EA019091EB0182239323CECF21E030E061
:100E900002C0220F331F8A95E2F78091EA019091F8
:100EA000EB0182279327C0CF2091EA013091EB011B
:100EB000822B932BB9CF2091EA013091EB01822351
:100EC0009323B2CF2091EA013091EB01822793273F
:100ED000ABCF0895262F277091E001C0990F2A9576
:100EE000EAF723E0769567952A95E1F7660F771F75
:100EF000660F771FFA01E60FF71F50E040E0682FFA
:100F000070E08191DF0111979B01042E02C036959C
:100F100027950A94E2F7217021952827292328276D
:100F20002C934F5F5F4F4430510559F70895A82F18
:100F3000A77023E0969587952A95E1F7880F991F6A
:100F4000880F991FFB01E80FF91F50E040E080E097
:100F5000219130E00A2E02C0369527950A94E2F7D7
:100F600021703327042E01C0220F0A94EAF7822B46
:100F70004F5F5F4F4430510559F70895262F983041
:100F800068F4853058F4682F70E085E0989F600D14
:100F9000711D112446ED51E0822F9CCF0895292F19
:100FA000983058F4853048F490E066ED71E035E013
:100FB000239F800D911D1124BACF80E00895B0E0E9
:100FC000A0E0E5EEF7E00C9466247C010091EA01D4
:100FD0001091EB018091EC019091ED01082B192B00
:100FE000CFE0D0E0CC24C394D12CBC2EC6010C2E73
:100FF00002C0880F991F0A94E2F780239123892B5E
:1010000049F4219790F7B12C8B2DCDB7DEB7E9E0ED
:101010000C948224B7018C2FE7D5019791F3F4CF7C
:10102000CF93DF93EC01CBDFBE01DED5DF91CF9113
:1010300008951F93CF93DF93EB019091D5019923EE
:1010400031F0CB01EDDFDF91CF911F91089588231F
:1010500051F0CB01B4DF182F682FCE018FDFBE0116
:10106000812FC2D5F0CFCB019ADF182FF8CF1F9375
:10107000CF93DF93C091EE0117E08091EF018C13C5
:1010800004C0DF91CF911F910895D0E01C9FF00123
:101090001D9FF00D1124E051FE4F208131814281CE
:1010A00053816481758186818BDE2196C770E5CF7F
:1010B000209128023091290240912A0250912B025E
:1010C00060912C0270912D0280912E0279CECF93E7
:1010D000DF9380912E02807F09F04BC080912D021A
:1010E000882309F446C0E091EE015091EF01C091D0
:1010F0002902D091280260912A0270912B0247E0C8
:101100005E17B9F18E2F90E0E49FF0011124E051B9
:10111000FE4F2481222381F1489FF001499FF00D69
:101120001124DF01A051BE4F11962C9111972C1361
:1011300023C02C912D1320C015962C9115972111A9
:101140001BC012962D913C91261B370B283C310574
:1011500098F480912E028F70806180932E02EA5065
:10116000FE4F80818F708061808388E292E0BEDDD7
:101170007EDFDF91CF910895FC013196E770C0CFFB
:10118000482F2091EE019091EF0157E0291302C002
:1011900080E0089530E0529FF001539FF00D11243C
:1011A000E051FE4F8181681306C08081481303C05F
:1011B00085818111EECF2F5F3F4F2770E7CFA4E1EC
:1011C000B0E0E5EEF8E00C9463248C0186E0F801D1
:1011D000DE011F9601900D928A95E1F7F801848156
:1011E000E58098E2A92E92E0B92E90912C029111FF
:1011F0001AC08823A9F0EE2089F0C801CDDDF82EB1
:10120000882361F087E0F801D50101900D928A955D
:10121000E1F7C501E6DA5BDF4BDF59C0C80166DDE7
:10122000FF24F39454C0C080D18082809380F090DA
:101230002D0220912A0230912B02A401421B530B54
:10124000FF2009F4E9C0483C510508F09CC0882300
:1012500009F43DC09091290280912E02282F207F11
:1012600009F056C09D1114C090912802C91210C0F7
:10127000E11048C08F70806180932E0219DF88E2F0
:1012800092E034DD80912E02F8018683F12C1FC09C
:10129000E11038C06D2D8C2D73DF6D2D8C2D70DF1E
:1012A000E82E8111F3CFCF86D88A8F859889B8DE52
:1012B000292F22952F70243078F49F702230A0F0CF
:1012C0009923B1F0F8019681907F91F4FE2C8F2D37
:1012D0006496ECE00C947F242A5F2F70223060F03B
:1012E000C80104DDEF2CF2CF992311F0882371F3AC
:1012F000805E883058F3F4CF803F40F3815F8330C5
:1013000078F7E4CF80912E02816080932E02BECFC9
:101310009D1112C090912802C9120EC0E1100CC09C
:101320008683C801E3DC87E0F801A8E2B2E001901F
:101330000D928A95E1F770CFC8012EDD882309F45C
:101340006DCFEE2009F46ACF80912E02803280F0BA
:101350002091280230912902398728879B868A8626
:1013600090912C029C871D868E87CE010896BEDC4C
:1013700087E0F801A8E2B2E001900D928A95E1F7CA
:10138000A6DE96DE4DCF90912E02292F207F89F484
:10139000682D9A8A898AA6017A899E2D07DD88E2BE
:1013A00092E0A4DC87E0F50111928A95E9F780DEEE
:1013B0006DCF882309F48BCF809129028D110FC046
:1013C00080912802C8120BC0E11009C09683C801A1
:1013D0008DDC87E0F50111928A95E9F778CFC80195
:1013E000DBDC882309F41ACFEE2009F417CF8091B3
:1013F0002E02803208F4BCCF2091280230912902BD
:101400003A8329839C828B8290912C029D831E8239
:101410008F83CE010196ABCF483C5105A8F58823B8
:1014200009F4FECEFE2CEE2009F4F8CE80912902BC
:101430008D111EC080912802C8121AC080912E0200
:1014400080FD0DC0982F907F51F08683903F09F466
:1014500068CF982F907F905F8F70892B61CF87E046
:10146000F801A8E2B2E001900D928A95E1F72FCF42
:10147000C80192DC81117CCF80912E028160809323
:101480002E02C80133DC23CF682D9A8A898AA601EF
:101490007A899E2D8BDC87E0F50111928A95E9F718
:1014A000BBCEAEE0B0E0E7E5FAE00C946C24288710
:1014B00039874A875B876C877D878E87CE01089640
:1014C0007EDE8823A9F06C85662339F0288539856E
:1014D0004A855B857D858E8573DC17E08091EE0102
:1014E0009091EF0189133BC02E96E3E00C94882481
:1014F00087E0FE013896DE01119601900D928A95E3
:10150000E1F78C85882349F32091EF0130E0C90190
:101510000196877099274091EE014817190691F0BE
:1015200097E0929FD001939FB00D1124A051BE4F20
:10153000FE01319601900D929A95E1F78093EF01AB
:1015400096DDCBCF0CDC1092EF011092EE0187E01C
:10155000E8E2F2E0DF011D928A95E9F7BECF819FB4
:10156000C001112480519E4F2ADE882309F4BCCF8C
:10157000E091EE011E9FF0011124E051FE4F208109
:1015800031814281538164817581868119DC80912A
:10159000EE0190E00196877099278093EE019ECF2F
:1015A00080913702869586958695089580913702B9
:1015B0008770089590913702977081E009F480E078
:1015C000089580914302089590914302892B80935E
:1015D000430208958095909143029823909343028B
:1015E00008958093430208951092430208959091C4
:1015F0004202892B80934202089580959091420285
:1016000098239093420208951092420208950895FB
:10161000FECF089590913802292F282329F0809534
:10162000892380933802F4CF08950895FECF08955A
:1016300090913902292F2823281721F0982B909375
:101640003902F4CF089590913902292F282329F0E7
:101650008095892380933902E9CF089580913902DA
:10166000882321F01092390280E0E0CF08950F9393
:101670001F93CF93DF930091000110910101C0915E
:10168000430280914202C82B80913902882329F0BD
:10169000C82B0E946B1A8111E1DFF801C083C09151
:1016A0000001D091010148E050E06FE272E0CE010C
:1016B0000E94A824892B59F088E0FE01AFE2B2E035
:1016C00001900D928A95E1F7CE010E94FE19DF91FB
:1016D000CF911F910F910895CACF08950895FECF1D
:1016E000089590919B0292FF0EC098E0899F90010F
:1016F0001124622B60933702ABDB80913702869511
:1017000086958695ECCFA4CB1092370280E0E7CF88
:10171000909137028095892380933702282F277074
:1017200059F4891749F090919B0292FF05C0869564
:10173000869586959BDBE8CF089590919B0292FB5E
:10174000222720F9281749F080FB92F990939B02F9
:101750008AE992E04AD082E0DBCF089580919B0233
:1017600082FB882780F991E08927E7CF81E0E5CFE8
:1017700080E0E3CF60E070E0CB010CC460E070E09B
:10178000CB0102D4F7CFA4E0B0E0E9ECFBE00C948D
:101790006D24A2D3ADD31C82CE010496C0D381E0C8
:1017A00090E09093ED018093EC01C5D31A821982E9
:1017B0008A8184618A83CE010196CED31B82CE01B9
:1017C0000396DCD3DBDF2496E2E00C948924DBCFA4
:1017D000089594C3089581C3089596C30895A5C339
:1017E0000895A9C30895ACC30895B6C30895BBC3B3
:1017F0000895C4C30895D4C30895A6E0B0E0E3E01B
:10180000FCE00C946B240E94F51B8C018091440237
:10181000909145028017910781F019821A820E94E7
:10182000F51B682F49815A81792F80E090E00E9452
:10183000C40310934502009344022696E4E00C94FE
:101840008724EAD260935202709353028093540229
:101850009093550260934E0270934F028093500212
:1018600090935102089508950895FDCF0895089525
:10187000FEDFFBCF0895FECF08950895FEDFFBCF76
:1018800081E0089585E29FE01DD7EEDFF1CF2CC502
:101890000895089508950895FCDFFCDFFCCF9BDFD9
:1018A000811101C094DF86E592E097DF8AE992E03A
:1018B0009ADF0E94071593DF9ADA8091EA019091EE
:1018C000EB01AECA0E94EC1B82D213D539D4E7DFFC
:1018D0000E94A40351D70E94091518D5CFCFA6E0C6
:1018E000B0E0E5E7FCE00C946424CADF81110AC093
:1018F00084DFFAD40E94AC170E94AC032696EBE07A
:101900000C9480246ED486E4A82E82E0B82E750153
:1019100010E0F70101917F01812F4DD31F5F183037
:1019200009F43DC00817A9F38091560281FD49D3FF
:10193000AEDFC82E10E099249394812F3CD3082F5A
:10194000F50181915F01081729F1F12CEE24E39450
:10195000D02ED8268D2D8E21A9F0CC2099F0F98299
:101960001A830E94F51B9C838B839D8291E0802FBC
:101970008E2109F490E049815A816B817C818D81AF
:101980000E94C403F394EE0CF5E0FF12E3CFF501DF
:10199000319700831F5F183081F653DFAACF0813F9
:1019A000C3CFA6CF1F93CF93DF9320D1EC01C115F6
:1019B00080E5D807F0F5C11580E4D80708F09AC093
:1019C000C03ED10520F5CD3CD10508F082C0C83A13
:1019D000D10578F4C53AD10508F073C0C130D105FE
:1019E00019F1209709F1C430D105F0F4D0E0C0E03E
:1019F0001BC0C33CD105D0F7C85AD0E0CC0FDD1FC7
:101A0000CE56DE4F0990D881C02DD4640DC0C115CB
:101A100080E2D80708F0CDC0C11581E0D80708F0F2
:101A20005AC0C83ED10510F7CE01DF91CF911F916A
:101A30000895C03682E5D80718F5C03482E5D80786
:101A400008F068C0C03282E5D80708F05CC0C11554
:101A500082E5D80708F493C02C2F2695269580E2BE
:101A6000289F900111248C2F8370C1E0D0E002C028
:101A7000CC0FDD1F8A95E2F7C22BD32BDD68D4CFC4
:101A8000C03A82E5D80760F4C03882E5D80708F488
:101A900056C0CF71D0E0DC2FCC27C46FD06AC4CF42
:101AA000C03C82E5D80708F45FC0C03E82E5D80795
:101AB00008F09CCFDC2FCC27CC27DF71C06FD06A19
:101AC000B3CFC55AD0E0C853DE4FC881D0E0D06450
:101AD000ABCFD065A9CF8D2F2BD1182FCE01992751
:101AE00085D0C12FD0E0DC2FCC27CC27DF71C82BCD
:101AF000D92B9ACFCE01992779D0CC27DF70C82B6C
:101B0000D92BD06A91CFCF71D0E0DC2FCC27C16F19
:101B1000D06A8ACF2C2F26952695277080E2289FA1
:101B2000900111248C2F8370C1E0D0E002C0CC0F53
:101B3000DD1F8A95E2F7C22BD32BDC6875CF2C2FE3
:101B400026952695277080E2289F900111248C2FDE
:101B50008370C1E0D0E002C0CC0FDD1F8A95E2F7B0
:101B6000C22BD32BDA6860CF8C2F8F71E1D0C82FB6
:101B7000D0E0DC2FCC27CC27DF71D06255CF8C2F63
:101B80008F71D6D055E0D695C7955A95E1F7CF70AD
:101B9000D0E0DC2FCC27282F30E084FF06C044E0C3
:101BA000220F331F4A95E1F73327C22BD32BD0697D
:101BB0003BCF8D2F8F71BCD0182FCE01992716D017
:101BC000C12FD0E0DC2FCC27CC27DF71C82BD92B3D
:101BD000D4CF462F783028F4653018F4672F0C9452
:101BE000230290E080E00895F4DFDCCE8238910596
:101BF000B9F1B0F48133910509F47DC048F489321C
:101C0000910509F46DC08A32910509F47BC00895ED
:101C10008533910509F45FC08933910509F1089571
:101C2000833E9105D9F138F4803E910529F1823E39
:101C3000910579F10895863E9105D9F1873E910588
:101C400009F43EC0843E910541F520919B0221FF9D
:101C500024C080919A0284FD19C087EE90E0089517
:101C600020919A02237009F05AC020919B0223FF11
:101C700014C089E290E0089520919A0220FD38C0B6
:101C800030919B0230FF09C024FF43C090E080E008
:101C9000089520919A0222FDF7CF089520919A028B
:101CA00022FD3AC030919B0230FD39C024FFF5CFB0
:101CB000EDCF20919A0223FFF0CF24FDE7CFCDCFC7
:101CC00020919A0223FD2EC030919B0231FFEECF6E
:101CD00084EE90E0089520919A0225FFDECFC9CFCF
:101CE00020919A0225FD21C020919B0223FFD5CF90
:101CF00089E390E0D2CF20919A0226FFCECF8AE2EC
:101D000090E0089520919A0226FFC7CF81E390E0EA
:101D1000089583EE90E0089582EE90E0089580EEBD
:101D200090E0089586EE90E0089585E390E00895B0
:101D300090919A0292FF10C041E0282F2471243024
:101D400009F040E031E0282F2871283009F030E018
:101D5000431711F02CE0822793FF10C041E0282F99
:101D60002471243109F040E031E0282F2871283116
:101D700009F030E0431711F02CE0822730919B02EC
:101D800030FF10C051E0282F2171213009F050E0C0
:101D900041E0282F2871283009F040E0541711F055
:101DA00029E0822731FF10C041E0282F2171213125
:101DB00009F040E031E0282F2871283109F030E0A7
:101DC000431711F029E0822794FD877E0895109231
:101DD0009C0210929D0210929E0210929F02089502
:101DE000CF92DF92EF92FF926B017C017DD2811145
:101DF0000EC00E94011CC61AD70AE80AF90AC0924E
:101E00009C02D0929D02E0929E02F0929F02FF906F
:101E1000EF90DF90CF9008950F931F9365D28823A2
:101E200029F00E94011C1F910F9108950E94011C2E
:101E300000919C0210919D0220919E0230919F0280
:101E4000600F711F821F931FEECF80E00895CF9324
:101E50009C01205E3245C1E02032310538F4FB019F
:101E6000C581C11103C08F710E945C038C2FCF917B
:101E700008959C01FB018581882391F02B35FCE7B7
:101E80003F0761F02C359CE7390729F02A353C479C
:101E900041F46CDC01C062DC80E0089569DCFCCFB9
:101EA00081E008959C01FB018581882399F0213010
:101EB000FCE73F0761F023309CE7390739F0211533
:101EC0003C4749F40E94840380E0089582DC0E942C
:101ED0008803FACF81E00895089590E080E00E94A1
:101EE000C62421E0833E9E4F09F020E0822F089512
:101EF00063EE7EEF90E080E00C94E5246FEF7FEFDF
:101F000090E080E00C94E524CF93DF93EC0182E035
:101F100090E00E94BE248883DF91CF910895FC0158
:101F2000608182E090E00C94CB2483E090E00E94FA
:101F3000BE2490E00895682F83E090E00C94CB24B9
:101F4000CF93DF93EC0184E090E00E94C624998354
:101F50008883DF91CF910895FC016081718184E0D5
:101F600090E00C94E524CF93DF93EC018CE090E0BB
:101F70000E94BE248883DF91CF910895FC01608187
:101F80008CE090E00C94CB24AB01BC018FE090E09E
:101F90000C94DD24AB01BC0183E190E00C94DD24C2
:101FA000682F8EE090E00C94CB240895FECF089526
:101FB0000895FECF0895E82FF0E0E755FD4F8081AA
:101FC000089508950895FECF0895EF92FF921F930C
:101FD000CF93DF9300D000D0CDB7DEB785D1182FD7
:101FE0006091B102882309F445C019821A821B82CC
:101FF0001C82862F90E09E012F5F3F4F7901B9012F
:1020000087559D4F8FD18823E1F08091A00290E009
:1020100044E050E0B70187559D4F0E94A82421E07D
:1020200020935702892BC1F410E0C3DF812F0F905A
:102030000F900F900F90DF91CF911F91FF90EF9035
:10204000089580915702882379F384E0F701119273
:102050008A95E9F710925702E091A002F0E0E75567
:10206000FD4F89819A81AB81BC8180839183A2835A
:10207000B383DBCF70E067557D4F8091A00290E085
:1020800087559D4FD4D19FDFD1CF1F93CF93DF933F
:1020900022E031E0C1E0D0E0D90150E040E08D9194
:1020A0008F3F91F0E82FE295EF70F0E011A18F7073
:1020B000BE0101C0660F8A95EAF7962F909591238D
:1020C00091A382A1862B82A34F5F5F4F45305105BC
:1020D00031F72B5F3F4F81E026313807E9F6DF917A
:1020E000CF911F910895CF93DF93AC01A62FB0E05D
:1020F00085E0689FF0011124EE5FFE4F70E081E003
:1021000060E091919F3FD1F0C92FC295CF70D0E090
:1021100028A130E09F7002C0359527959A95E2F787
:1021200020FD0CC0282F622B7F5F880F753049F788
:10213000A40FB51F6C93DF91CF91089520E0F3CFEA
:10214000A4E1B0E0E6EAF0E10C946D248091160180
:10215000811126C084E1E5E4F1E0DE0111960190F1
:102160000D928A95E1F7FE013196A2E0B1E0CE0131
:10217000459620812C93218111962C9311972281D1
:1021800012962C931297238113962C9313972481E4
:1021900014962C931497359615968E179F0749F72A
:1021A0008091160194E0811190E09093B10284E057
:1021B000891B8093A00269DF88E0E9EAF2E0DF0191
:1021C000982F1D929A95E9F7E1EAF2E0DF011D925E
:1021D0008A95E9F784E040D0E9DE6496E2E00C9469
:1021E0008924A8E0B0E0E7EFF0E10C946A248E01C6
:1021F0000F5F1F4F88E0F80111928A95E9F7F12CE3
:102200006F2DC80170DFF394F4E0FF12F9CF48E0BE
:1022100050E0B80181EA92E00E94A82421E00097F2
:1022200009F420E0892B41F088E0F801A1EAB2E04E
:1022300001900D928A95E1F76091B10270E06755C7
:102240007D4F44E081EA92E008D0182FBEDE812B5A
:102250002896E5E00C9486240895B0E0A0E0E3E33E
:10226000F1E10C9467246C017B01042FC22F22231F
:1022700079F081E080935A020E94F51B90935902F5
:102280008093580280E0CDB7DEB7E8E00C94832459
:10229000D0915A02DD23B1F38091580290915902F6
:1022A0000E94761B059770F310E0A801B601C701E4
:1022B0000E94A824892B31F0A801B601C7010E9411
:1022C000B524CD2F10925A028C2FDDCFCF930E94D0
:1022D0003724C82F811102C00E9433248C2FCF9144
:1022E000089580915E02089580915D020895FCCF6B
:1022F0000895ECDF80935D02FADF80935E02F1DFE8
:1023000080931601F1DF811142C00895EDDF811144
:1023100001C040C0089581E090915F029A3008F0BA
:1023200080E008950F931F93CF93DF93EC018B010F
:1023300080915F028A30B0F4B801CE0176D0C82F08
:10234000811122C080915F028F3FB9F40E94F51B7A
:1023500090935C0280935B028C2FDF91CF911F9151
:102360000F91089580915B0290915C020E94761B10
:10237000843F914008F7C0E0EFCF8F5F80935F020A
:102380008A3020F7C1E0E8CF10925F02E5CF0C94CD
:10239000A31C08950C94A61C0895B0E0A0E0E3ED02
:1023A000F1E10C9468247901C82F880FDD0B4115E9
:1023B0005105A9F0FE0193E0EE0FFF1F9A95E1F79A
:1023C000E95EFE4F81819281805A9D4F208130E0ED
:1023D0004217530708F49A01A9010E94B524CE01BF
:1023E0000E94861DD82E8823D1F001151105B9F061
:1023F00083E0CC0FDD1F8A95E1F7FE01E95EFE4F19
:10240000438150E00417150708F4A801C95EDE4FA8
:102410006C817D81605A7D4FC7010E94B5248D2D4E
:10242000CDB7DEB7E7E00C948424F0C0089503C173
:102430000895A4E0B0E0EFE1F2E10C946B24609128
:1024400075027091760280917702909178020E94D5
:102450007F1B11E0643671058105910508F1DCDC14
:102460006E5F7F4F8F4F9F4F69837A838B839C83EF
:1024700010E000E030E020E044E050E0BE016F5F9B
:102480007F4F82E08ADF182F882351F00E94011CC1
:10249000609375027093760280937702909378022E
:1024A000812F2496E4E00C948724B0E0A0E0EBE5D3
:1024B000F2E10C9465247C015B016A012CDF01E0F0
:1024C00010E0882311F00AE010E0C1E0D0E0B5018F
:1024D000C701F6010995811104C021960C171D074B
:1024E0002CF4CDB7DEB7EAE00C948124CC9F9001A8
:1024F000CD9F300D300D112490E080E045E34A95EA
:10250000F1F70000019682179307C1F7E0CFA5E02D
:10251000B0E0EDE8F2E10C9465245B01E090CB01C2
:10252000F090CC0101E010E09E012B5F3F4F50E0A6
:1025300040E070E060E080E030DF182F882309F48D
:1025400048C067018FEFC81AD80A60917102709174
:10255000720280917302909174020E947F1B643614
:1025600071058105910570F104E010E09E012F5F77
:102570003F4F50E040E070E060E081E00EDFF82E79
:1025800064E070E0C60146D211E09D81981310E02E
:102590001F2151F10E94011C60937102709372021D
:1025A000809373029093740289819A81AB81BC817C
:1025B00080936D0290936E02A0936F02B0937002AD
:1025C00011E012C064E070E0C60124D29D8189133D
:1025D000CBCFF70181819281A381B48189839A83D2
:1025E000AB83BC831111E0CF80916D0290916E029C
:1025F000A0916F02B0917002F50180839183A28354
:10260000B383812F2596EAE00C9481240F931F93C6
:10261000CF93DF93EC018B0147E852E146DF88233B
:1026200029F049E152E1B801CE013FDFDF91CF91BE
:102630001F910F9108950F931F93CF93DF93C09134
:10264000CB01D091CC01CE01019624E0FB01DC014D
:1026500001900D922A95E1F764E070E0DBD1888368
:102660006D817E818F8198850091690210916A0247
:1026700020916B0230916C026017710782079307FB
:1026800049F06093690270936A0280936B029093A1
:102690006C02A6DBDF91CF911F910F9108951FC9A6
:1026A00008950E948F1B0E941A1FECD80E94321FAF
:1026B00009D90E943B1F0E943E1FF1DF0E94541F58
:1026C000EBD8F9CF9093CF018093CE010895FB0111
:1026D0002581222339F097FF05C09F77BC0190E048
:1026E00080E026D181E008950F931F93CF93DF936D
:1026F000EC018B01FB018581882381F00E94E10AB6
:102700008272FE01E053FC47E830F10538F4E95FDE
:10271000FA4D0C945724882359F040D0B801CE01CB
:10272000D6DFDF91CF911F910F9108958823A9F3F0
:1027300034D0F4CF80E026D0F1CF81E0FCCF82E02E
:10274000FACF83E0F8CF84E0F6CF85E0F4CF909124
:10275000B302923069F48A3048F490E009966AE056
:1027600070E00E944424875A0C948A048650FCCF5F
:102770007AC50895FECF089583EB92E038D8809112
:10278000B302F8CFCF93C82F8093B30283EB92E0CC
:1027900030D88C2FEFDFCF910895089508952CD66F
:1027A0008093B2029091B302913029F481FF03C06B
:1027B00089E30E948A040E94E10A8093B4020E9485
:1027C000F40A0E94040B8091B302823021F158F484
:1027D0008823C1F08130D1F08FE39CE90197F1F7B4
:1027E00000C000000895843051F18530A9F78BE1D5
:1027F00091E00E949F0285E290E00E949F0288E2A1
:1028000090E006C082EE0E940204E6CF88E193E0E9
:102810000E949F02E1CF8091B20280FD03C083E558
:102820000E948A0482EE0E9402048FE39CE90197D1
:10283000F1F700C0000087E50E948A04CDCF86EE44
:102840000E948A0488E1F8CF8091B302823009F1B6
:1028500040F4882379F0813089F08091B4020C949F
:10286000F10A8430F9F08530C1F788E290E00E94E7
:102870009F02F3CF82EE0E944704EFCF8CE20E94CA
:102880008A048091B20281FFE8CF89E30E948A0422
:10289000E4CF82EE0E9447048091B20280FDDDCF3A
:1028A00083E5F4CF88E2F2CF8F929F92AF92BF92EE
:1028B000EF92FF920F931F93CF93DF934B015C0135
:1028C000D091B3028CE1E82EF12C07E010E021E07A
:1028D000D501C4010E2C04C0B695A7959795879590
:1028E0000A94D2F7C82FCF70222331F0D43041F4AC
:1028F000CA3030F080E02BDF8C2F29DF20E005C0CC
:10290000C111FACF04301105BCF30150110984E064
:10291000E81AF1080F3F1007D9F6DF91CF911F9108
:102920000F91FF90EF90BF90AF909F908F90089580
:10293000CF92DF92EF92FF926B017C01C114D10420
:1029400081E1E806F10480F5C114D10481E0E806D4
:10295000F10420F08091B302823031F120DFC11404
:10296000D10481E0E806F10420F18091B3028111E5
:1029700020C081E0E81AF108C701B6012AE0969567
:102980008795779567952A95D1F778528F4F9F4F06
:102990008BDF83E0D822EE24FF24C701B6017452F6
:1029A0008F4F9F4F81DF50DFFF90EF90DF90CF90F0
:1029B0000895C701B601F6CF0C94E90B0895CF93A3
:1029C00090DCC4E08111C0E08C2FF5DA21E030E02A
:1029D00002C0220F331FCA95E2F790E02823392363
:1029E00081E0232B09F480E0CF910895FADB2FEFEB
:1029F00086E791E0215080409040E1F700C0000060
:102A0000F0DBDDDF882311F0D7DF2BC70895EECF91
:102A100008950895FC01680F791F8FEF91E3E61781
:102A2000F70709F408952191822728E030E087FF15
:102A300006C0880F892721503109C9F7F0CF880FC8
:102A4000FACFCF93DF93EB0186319C4701F50E94CB
:102A5000E10A9D81992391F08A7A91E009F490E04E
:102A600090937902811108C089E285D50E946C0B90
:102A700080E0DF91CF91089585E3F7CF80917902CF
:102A8000811103C089E27DD5F1CF85E3FCCF81E0E0
:102A9000F0CFCF93DF93EC01FB018581882309F40C
:102AA000CEC09E0130572332310508F0AEC08AE90E
:102AB00092E00E94F30BFE01E150F047E232F10593
:102AC00020F4E15FFA4D0C94572480919A028160C2
:102AD00080939A0293C080919B02886080939B02AE
:102AE0008DC080919A028260F3CF80919A028460B7
:102AF000EFCF80919A028860EBCF80919B0281603A
:102B0000EDCF80919B028260E9CF80919A02806133
:102B1000DFCF80919A028062DBCF80919A0280643D
:102B2000D7CF0E94AF0680919A028068D1CF809162
:102B30009A028C60CDCF80919B028360CFCF809131
:102B40009A028E7FC5CF80919B02877FC7CF8091ED
:102B50009A028D7FBDCF80919A028B7FB9CF8091F1
:102B60009A02877FB5CF80919B028E7FB7CF8091ED
:102B70009B028D7FB3CF80919A028F7EA9CF8091E7
:102B80009A028F7DA5CF80919A028F7BA1CF0E9460
:102B9000AF0680919A028F779BCF80919A02837FB4
:102BA00097CF80919B028C7F99CF80919A0282FB74
:102BB000992790F921E0922790FB82F990FB83F905
:102BC00087CF80919B02982F909591708E7F892B53
:102BD00090FB81F983CF90919A02892F8F7B96FF8A
:102BE000806476CF0E94AF0690919A02892F97FB5E
:102BF00087F980586DCF81E00E94FB0B8AE992E053
:102C00000E94F50B0E94AF0680E0DF91CF910895FE
:102C100080E0F2CF90919A02892F8F7E94FF80619D
:102C200057CF90919A02892F8E7F90FF816050CF6D
:102C300090919B02892F877F93FF88604FCF81E01F
:102C4000E4CF282F35EB2303C001112497FF04C0E4
:102C500080589109892F089580589F4FFBCF80910C
:102C6000800280FF0DC06091340170E0660F771F15
:102C70006038710570F56115710569F1862F089549
:102C800081FF07C06091340184E0689FB001112486
:102C9000EFCF6091340182FD0AC080917F028823CA
:102CA000A9F02091330160913401821710F088E07F
:102CB000ECCF869FC001112433E0880F991F3A950D
:102CC000E1F7622F70E00E944424D2CF68E070E008
:102CD000D5CF8FE7089581E008958091800280FF2D
:102CE0000CC06091300170E075956795759567959A
:102CF0006115710549F1862F089581FF06C0609125
:102D0000300170E075956795F3CF6091300182FDD9
:102D10000BC090917E029923A1F060912F018091C8
:102D20003001961738F0682F70E06038710500F3B5
:102D30008FE70895899FC001112470E00E94442408
:102D4000F4CF61E070E0D7CF81E008958D3C29F4A5
:102D500086DF81958093840208958E3C11F47FDF95
:102D6000F9CF8F3C29F47BDF81958093830208950E
:102D7000803D11F474DFF9CF893D21F4AEDF8093FB
:102D8000850208958A3D19F4A8DF8195F8CF8B3D1F
:102D900029F4A3DF81958093860208958C3D11F478
:102DA0009CDFF9CF9FE2980F983070F4815D990B0A
:102DB00021E030E001C0220F8A95EAF7809182027B
:102DC000822B8093820208958D3D31F480918002A0
:102DD00081608093800208958E3D21F4809180026D
:102DE0008260F7CF8F3DB9F7809180028460F1CF88
:102DF000409183028D3C59F48091840287FF0DC07D
:102E00001092840241110BC010927F0208C08E3CC8
:102E100081F48091840218169CF3442381F0809100
:102E2000850290918602892B09F05AC010927E0289
:102E300008958F3C49F447FFF0CF109283028091B0
:102E400084028111ECCFE0CF803D19F41416ACF36D
:102E5000E4CF90918502893D29F41916F4F6109279
:102E60008502DBCF8A3D19F497FFD7CFF8CF909139
:102E700086028B3D29F497FFD0CF10928602CDCFEA
:102E80008C3D19F41916CCF3C8CF9FE2980F9830F7
:102E900090F4815D990B21E030E0B90102C0660F2A
:102EA000771F8A95E2F7CB01809590918202892362
:102EB00080938202B2CF8D3D31F4809180028E7F6B
:102EC00080938002AACF8E3D21F4809180028D7F75
:102ED000F7CF8F3D09F0A1CF809180028B7FF0CF9B
:102EE000089583D49C019091830280918402982B51
:102EF00021F030937D0220937C0290918502809195
:102F00008602982B21F030937B0220937A0281E88D
:102F100092E081C286E0E1E8F2E0DF011D928A954D
:102F2000E9F710927F0210927E02109280020895BB
:102F3000FC01828181110EC0838181110BC08481CB
:102F4000811108C091E08581811101C090E0892F35
:102F50008170089581E0FCCFA6E0B0E0E2EBF7E1FC
:102F60000C946C2486E0E1E8F2E0DE011196019019
:102F70000D928A95E1F710928302109284021092CA
:102F80008502109286028B819C81892B81F0809131
:102F90007C0290917D02AAD3AC0190917F0299238B
:102FA000A9F1809135018417150608F43CC08D8184
:102FB0009E81892B89F080917A0290917B0296D331
:102FC000AC0190917E02992309F463C08091310194
:102FD0008417150608F46BC0BE016F5F7F4F81E850
:102FE00092E0E0D2811104C081E892E0A1DF81117A
:102FF00078DF86E0FE013196A1E8B2E001900D9203
:103000008A95E1F72696E3E00C9488242091360116
:103010008AE0289F900111242417350740F69F5F0E
:1030200090937F0202C09F3FD1F71B81112351F083
:1030300016DE9FEF11160CF491E0899F802D11246C
:10304000809383021C81112351F009DE9FEF11163A
:103050000CF491E0899F802D11248093840280914B
:103060008302882309F4A3CF10918402112309F469
:103070009ECFE7DD882349F080938302812FE1DD35
:10308000882329F08093840292CF81E0F5CF81E0FC
:10309000F9CF209132018AE0289F90011124241752
:1030A000350708F099CF9F5F90937E0202C09F3F43
:1030B000D1F71D81112351F010DE9FEF11160CF492
:1030C00091E0899F802D1124809385021E81112318
:1030D00051F003DE9FEF11160CF491E0899F802DD3
:1030E00011248093860280918502882309F474CF8D
:1030F00010918602112309F46FCFA3DD882349F0D4
:1031000080938502812F9DDD882329F0809386029C
:1031100063CF81E0F5CF81E0F9CFB0E0A0E0E3E953
:10312000F8E10C946624E82FF0E0E451FE4FB490EF
:10313000282F26952695269530E0F901E457FD4F76
:103140000491877010E0082E02C0159507950A9427
:10315000E2F701701127F901E458FD4FE490F12CDA
:10316000082E02C0F594E7940A94E2F791E0E92270
:10317000FF24F901E459FD4FC491D0E002C0D59578
:10318000C7958A95E2F7C170DD27C62ED12C0115AF
:10319000110549F5E114F10431F086EE0E940204B4
:1031A000C601009771F5B6018B2D0E947404C6010B
:1031B000009779F5E114F104A1F50115110531F03D
:1031C00081EE0E944704C6010097C9F5CD2B31F06E
:1031D0008CE20E948A04C114D104C9F5CDB7DEB7D0
:1031E000E9E00C94822481EE0E940204C60100975B
:1031F00089F2EFE9FFE03197F1F700C00000019795
:10320000F6CFEFE9FFE03197F1F700C0000001973A
:10321000C8CFEFE9FFE03197F1F700C00000019758
:10322000C7CF86EE0E944704C601009731F2EFE94E
:10323000FFE03197F1F700C000000197F6CFEFE90A
:10324000FFE03197F1F700C000000197BDCF8FE993
:103250009FE00197F1F700C0000091E0C91AD10882
:10326000BACF60E05ACF982F9F709A50963010F0E6
:10327000805DF7CF895AFDCF0F931F93CF93DF93D4
:10328000C42FD22FFC0185818823C1F0409389028D
:10329000ACD2909388028093870280E28C0F8830B2
:1032A00040F4C77081E001C0880FCA95EAF70E9418
:1032B0009104DF91CF911F910F9108951091890290
:1032C000141331C080918702909188020FD2883CFC
:1032D000910548F5C0E2CD0F1D17B9F080E2810FCE
:1032E000883040F4177081E001C0880F1A95EAF722
:1032F0000E949604C83048F481E09D2F977001C069
:10330000880F9A95EAF70E949104802F0E948A0400
:10331000C83078F6D77081E001C0880FDA95EAF7F7
:103320000E949604C6CF80E28C0F883010F6C770DA
:1033300081E001C0880FCA95EAF7F2CF0F93DB0155
:1033400088519C478730910598F5FC01EF5CFA4D58
:103350000C94572406E221EE41EE6AE17CE7CD01B0
:103360008BDF80E00F91089507E225EE45EE6BE1DB
:103370007CE7F5CF06E221EE40EE68E17CE7EFCF97
:1033800007E225EE44EE69E17CE7E9CF06E221EEB3
:1033900042EE6CE17CE7E3CF07E225EE46EE6DE11D
:1033A0007CE7DDCF08E221E045EE6EE17CE7D7CF98
:1033B00015968C91882319F010928902D3CF81E061
:1033C000D1CF9093900280938F0208950E94741140
:1033D000811103C080918A020895E0918F02F091DB
:1033E0009002309739F00190F081E02D309711F084
:1033F0000995089580E00895E9CF0895E0918F023E
:10340000F0919002309731F00280F381E02D3097F7
:1034100009F009950895E0918F02F091900230979C
:1034200059F026813781232B39F022E0DC012C93DF
:103430000680F781E02D09950895A3E0B0E0E3E26E
:10344000FAE10C946D2420918D0230918E022817A0
:103450003907B1F090938E0280938D02E0918F0234
:10346000F0919002309761F00084F185E02D309763
:1034700039F023E029839B838A83CE010196099545
:103480002396E2E00C948924A3E0B0E0EAE4FAE1B8
:103490000C946D2420918B0230918C0228173907EF
:1034A000B1F090938C0280938B02E0918F02F091A7
:1034B0009002309761F00084F185E02D309739F06B
:1034C00024E029839B838A83CE0101960995239664
:1034D000E2E00C94892440910001509101019A018D
:1034E0002E5F3F4F485F5F4F80E02417350709F498
:1034F0000895F90191919F019923B9F38F5FF5CF59
:10350000882371F02091000130910101F901329678
:10351000285F3F4F9191981729F0E217F307D1F7F1
:1035200080E0089581E008959C01FC0132969FEFB0
:1035300080E04191461751F09F3F19F4411101C0BD
:10354000982F8F5F8630A9F79F3F09F40895290FC0
:10355000311D97FD3A95F90162830895FC01329679
:1035600008962191261303C0DF0111971C92E817DA
:10357000F907B9F70895682F809100019091010132
:10358000D3CF682F8091000190910101E7CFE091A6
:103590000001F0910101329686E0DF011D928A95CB
:1035A000E9F70895DC01FB0111969C911197818147
:1035B000981322C012968C911297882319F0928149
:1035C00089131AC013968C911397882319F093814D
:1035D000891312C015968C911597882319F095813F
:1035E00089130AC014969C91992321F081E02481CB
:1035F000291303C080E001C081E08170089508951F
:10360000FECF089581110CC081E080933A01609152
:103610003701709138018091390190913A01F0CFD2
:1036200082E0F3CF83E080933A016091370170919B
:1036300038018091390190913A01E2CFE3CF0895AA
:1036400081E080933A016091370170913801809157
:10365000390190913A01D4CFF3CF089591E08111CF
:1036600001C090E090933901609137017091380169
:103670008091390190913A01C3CF80913901089529
:103680008093380160913701709138018091390140
:1036900090913A01B5CF8091380108958093370118
:1036A00060913701709138018091390190913A0110
:1036B000A7CF80913701089508950895FECF08950A
:1036C00008950895F9CF0895CF93FADF0E94F1107D
:1036D000F8DFC0E08C2F0E94DB0F811105C0CF5FA7
:1036E000C830C1F7CF91089581E0FCCFCF93DF932D
:1036F000EC017BD08C1B9D0BDF91CF910895CF9275
:10370000DF92EF92FF926B017C017BD06C197D09F7
:103710008E099F09FF90EF90DF90CF90089585B7B5
:10372000806885BF85B7806885BF08951F921FB6E2
:103730001F9211248F939F93AF93BF938091910217
:10374000811113C08091B5029091B602A091B70289
:10375000B091B8024196A11DB11D8093B50290931E
:10376000B602A093B702B093B802BF91AF919F91F8
:103770008F911F901FBE1F9018958091BD028430BD
:1037800031F10E948C031092910288E190E020E4D4
:103790000FB6F894A895809360000FBE2093600048
:1037A00083B7817F846083BF83B7816083BF789450
:1037B000889583B78E7F83BF0FB6F894A8958091C4
:1037C0006000886180936000109260000FBE0895D1
:1037D0000E94AF060C94900382E084BD93E095BDF7
:1037E0009AEF97BD80936E0008952FB7F89480915B
:1037F000B5029091B602A091B702B091B8022FBF66
:1038000008952FB7F8946091B5027091B602809137
:10381000B7029091B8022FBF089578941F921FB6F7
:103820001F9211248F939F93AF93BF938091B50202
:103830009091B602A091B702B091B8020196A11D75
:10384000B11D8093B5029093B602A093B702B093D6
:10385000B802BF91AF919F918F911F901FBE1F9093
:10386000189587E797E7909301088093000888E10F
:103870009AE00FB6F894A895809360000FBE9093DD
:103880006000FFCF88E19AE00FB6F894A895809386
:1038900060000FBE90936000FFCF8EE14A9B02C094
:1038A0008150E1F74A9BFECF08955A9880E28A95AD
:1038B000F1F75A9A0895FC013BE03A95F1F798E048
:1038C00020E080E031E040E14A95F1F7880F4A9B23
:1038D00002C08160232742E04A95F1F7000040E1F1
:1038E0004A95F1F7915079F790E19A95F1F799B1EE
:1038F00032E03A95F1F7000040E14A95F1F792FB8A
:10390000992790F992272081920F90830895A1E042
:10391000B0E0ECE8FCE1DDC719828C017C01E60E29
:10392000F11C0E151F0539F481E09981911180E099
:103930002196E6E0EAC7B1DFCE010196BCDFF801CF
:1039400081938F01EECF529A5A9A089552985A9ABB
:10395000EA9AE9E6F0E080818F7C808308956150E7
:10396000770B91E001C0990F6A95EAF720E031E00A
:10397000911108C0222391F05A9A80E28A95F1F7BA
:103980005A980895492F482339F05A9A232740E23C
:103990004A95F1F79695ECCF5A98F9CF5A98EDCF12
:1039A000FF920F931F93CF93DF93EC018C01060FCF
:1039B000111DC017D10721F4CDB7DEB7E5E0A6C7CA
:1039C000F99073DF68E08F2DCADFF3CF1F920F925B
:1039D0000FB60F9211240F931F932F933F934F9382
:1039E0005F936F937F938F939F93AF93BF93EF9367
:1039F000FF93CF93DF930F92CDB7DEB719824DDFE0
:103A0000CE01019658DF082F069506950695282FBA
:103A100022952570902F9570290F922F93702695DF
:103A20002695920F982797708981982B09F058C096
:103A3000043008F055C080E18A95F1F75A9A529AFD
:103A400082E08A95F1F700C05A9888E0089F8001CB
:103A50001124D801A95EBE4F1696ED91FC911797DF
:103A60003097A9F06091CB017091CC0114962D9103
:103A70003C911597260F371F11968D919C911297A7
:103A8000680F791F13964C9113978C910995F80143
:103A9000E95EFE4F6381662349F02091CB013091AE
:103AA000CC0184819581820F931F7ADFFEDE80E155
:103AB0008A95F1F75A9852985A9A80E18A95F1F7C7
:103AC000F801E95EFE4F6081662349F02091CB0149
:103AD0003091CC0181819281820F931F18DFDDDE4E
:103AE0000F90DF91CF91FF91EF91BF91AF919F9197
:103AF0008F917F916F915F914F913F912F911F9186
:103B00000F910F900FBE0F901F9018950F931F935A
:103B1000CF93DF93EC0104970CF049C0F894529ACC
:103B20005A9885E08A95F1F700009C2F969595703C
:103B30008C2F8570980F892F83709695969523E02A
:103B4000CC0FDD1F2A95E1F7980F8E01092BADDE12
:103B500000C068E0802F03DF80E18A95F1F752987A
:103B60005A9A4A9B1DC087E090E04A991BC0FE010B
:103B7000E95EFE4F63816623F1F02091CB01309125
:103B8000CC0184819581820F931FC1DE811113C006
:103B9000529A5A9A7894DF91CF911F910F9108957C
:103BA00000C0DFCF019729F4529A5A9A789480E0A6
:103BB000F2CF00C0DACF71DE80E28A95F1F75A9831
:103BC000529A80E18A95F1F7C95EDE4F68816623DB
:103BD00049F02091CB013091CC0189819A81820FEB
:103BE000931FDEDE62DE789481E0D5CF08959B01DD
:103BF000BA019091BD029430E1F48F708093E90096
:103C00009FEF8091E800915085FD06C085ED8A9573
:103C1000F1F700009111F5CF8091E80085FF09C010
:103C200050E040E0C901B5D18091E8008E778093E3
:103C3000E800089543E050E0BC0182E0D8CF46E0C0
:103C400050E0BC0182E0D3CFCF93DF93EC0115DDD0
:103C500048E050E0BE0181E0CADF88E0FE01A2E951
:103C6000B2E001900D928A95E1F7DF91CF9108952E
:103C70008091BC02811107C01AD371D38091E200F8
:103C800084608093E20008951092BC020895D8DC0D
:103C900081E0E4CC6091B90281E0611101C080E073
:103CA000C1CC9091BD0281E0943009F080E0609138
:103CB000B902C4CC42E061EC81E075D242E261EC31
:103CC00082E071D29091BD0281E0943009F080E0F1
:103CD0006091B90297CC8091BF02833009F45EC035
:103CE00030F48130C1F1823009F494C008958A30F3
:103CF00009F483C08B3009F46BC0893009F04DC0E2
:103D00008091BE02813209F048C08091C202909138
:103D1000C302029708F041C08091E800877F80933A
:103D2000E8008091E80082FF34C09091F300809118
:103D3000F200029731F48091F100813011F0863069
:103D400019F48091F1009CDC8091E8008B778093DE
:103D5000E8005DD222C08091BE02813AF1F48091E8
:103D6000E800877F8093E8008091C2029091C302AF
:103D7000892B59F468E082E992E070E057D1809194
:103D8000E8008B778093E800089560E090E080E0A1
:103D9000F4CF8091BD028111C4CF08958091BE02FD
:103DA000813AD9F78091C2029091C302892BA9F779
:103DB0008091E800877F8093E8008091E80080FF91
:103DC000FCCF5BDC8093F1008091E8008E77BFCF61
:103DD0008091BE02813209F78091C2029091C302A4
:103DE000892BD9F68091E800877F8093E8000FD275
:103DF0008091C00233DC0C94AF068091BE02813208
:103E000061F68091E800877F8093E80000D280917E
:103E1000C10244CC8091BE02813A09F0BECF8091AC
:103E2000E800877F8093E8008091E80080FFFCCF66
:103E300040DCC8CF84B7877F84BF0FB6F894A895BD
:103E400080916000886180936000109260000FBED6
:103E500080E890E00FB6F894809361009093610041
:103E60000FBEFACB24D27BD2E2EEF0E080818460F8
:103E700080837894DEC48BE391E0A3CA8091BD0275
:103E8000853029F48091BD02853011F0A1CC0895D0
:103E900074DC1ADC8823B1F38091BB02882391F390
:103EA00062D00E94AF06EECF08959A014091C402FD
:103EB0005091C50200C0492F55274330510519F1D3
:103EC00068F44130510509F444C04230510509F409
:103ED00045C090E080E050E040E025C0413251050F
:103EE00049F142325105A9F784E490E04EE853E0ED
:103EF00061157105C1F08BE790E043E153E061305B
:103F0000710589F0E6CF99278130910581F00097FE
:103F100029F00297F1F6ECE9F2E002C0E2ECF2E0FF
:103F2000849190E0AF01F901518340830895E8EB5B
:103F3000F2E0F6CF89E090E048ED52E061157105BE
:103F400091F389E090E041EF52E06130710559F35F
:103F5000C0CF82E190E041E053E0E5CF8BE390E019
:103F600046EC52E0E0CF80E189BD82E189BD09B431
:103F700000FEFDCF8091D8008F7D8093D800809186
:103F8000E00082608093E0008091E00081FDFCCF42
:103F90000895AF92BF92CF92DF92FF920F931F933B
:103FA000CF93DF936C01EB018A0150D1F82E811180
:103FB00023C00115110539F0F80180819181C81BDA
:103FC000D90BC80ED91EB12CA12C2097A9F0809135
:103FD000E80085FD21C08091E8008E778093E8009D
:103FE00001151105A1F0F80180819181A80EB91E7B
:103FF000B182A08285E0F82E8F2DDF91CF911F91A5
:104000000F91FF90DF90CF90BF90AF9008951ED199
:104010008823D9F2F82EF0CFF60181916F018093B9
:10402000F1002197FFEFAF1ABF0ACFCFFC018091BB
:10403000C4029091C50286179707A0F0611571051B
:1040400029F49091E8009E779093E80090E0611544
:10405000710551F4911108C08091E80082FF34C0CD
:1040600080E00895BC01F2CF8091BD028823C1F1A8
:104070008530C1F18091E80083FD30C08091E80077
:1040800082FDEACF8091E80080FFE1CF8091F300CC
:104090002091F200382F6115710519F02830310593
:1040A00058F091E02830310509F090E02091E800C7
:1040B0002E772093E800CBCF81918093F10061505F
:1040C00071092F5F3F4FE7CF8091BD02882341F0F8
:1040D000853041F08091E80083FFBECF81E00895F4
:1040E00082E0089583E00895FC018091C4029091DC
:1040F000C50286179707A0F06115710529F4809114
:10410000E8008E778093E80090E06115710551F426
:10411000911108C08091E80082FF35C080E00895C9
:10412000BC01F2CF8091BD028823C9F18530C9F16D
:104130008091E80083FD31C08091E80082FDEACFE4
:104140008091E80080FFE1CF8091F3002091F200A0
:10415000382F6115710519F02830310558F091E0BC
:104160002830310509F090E08091E8008E77809347
:10417000E800CBCF84918093F100319661507109B2
:104180002F5F3F4FE6CF8091BD02882341F08530FD
:1041900041F08091E80083FFBDCF81E0089582E087
:1041A000089583E00895982F973028F08F708093BA
:1041B000E90081E008959093E900242F762F50E0E4
:1041C000981731F07091EC002091ED005091F000C3
:1041D00021FD02C09F5FE8CF3091EB003E7F30931E
:1041E000EB003091ED003D7F3093ED003091EB001E
:1041F00031603093EB007093EC002093ED0050930E
:10420000F0002091EE0027FDE5CF80E00895809139
:10421000BE0287FF13C08091E80082FF06C0809134
:10422000E8008B778093E80004C08091BD02811183
:10423000F2CF08958091BD028823D9F38091E800E0
:1042400080FFF8CF8091E8008E77ECCF2091E400DA
:104250003091E50095E6A9012091EC00822F817054
:1042600020FF06C08091E80080FF06C080E008952E
:104270002091E80022FD1AC08091BD02882389F0B8
:10428000853089F08091EB0085FD0FC02091E4001E
:104290003091E50042175307F9F29150E1F684E0BE
:1042A000089582E0089583E0089581E0089567D03D
:1042B0006ED0E0EEF0E0808181608083E8EDF0E098
:1042C00080818F77808319BCA7EDB0E08C918E7FC1
:1042D0008C9380818F7E80831092BC0208950F930F
:1042E0001F93CF93DF934BD052D0C8EDD0E088819D
:1042F0008F77888388818068888388818F7D888391
:1043000019BC1092BD021092B9021092BB02109219
:10431000BA0200EE10E0F80180818B7F80838881F3
:104320008160888342E060E080E03DDFE1EEF0E024
:1043300080818E7F8083E2EEF0E0808181608083E7
:10434000808188608083F80180818E7F808388816E
:1043500080618883DF91CF911F910F910895E8EDDF
:10436000F0E080818F7E8083E7EDF0E080818160E6
:10437000808384E082BF81E08093BC02B0CFE8ED0F
:10438000F0E080818E7F80831092E2000895109289
:10439000DA001092E10008951F920F920FB60F926B
:1043A00011242F933F934F935F936F937F938F933A
:1043B0009F93AF93BF93EF93FF938091E10082FFB0
:1043C0000AC08091E20082FF06C08091E1008B7FED
:1043D0008093E1002DD28091DA0080FF18C0809197
:1043E000D80080FF14C08091DA008E7F8093DA00BD
:1043F0008091D90080FF91C080E189BD82E189BDB3
:1044000009B400FEFDCF81E08093BD0231DC8091D4
:10441000E10080FF18C08091E20080FF14C080910D
:10442000E2008E7F8093E2008091E20080618093C1
:10443000E2008091D80080628093D80019BC85E0AA
:104440008093BD0227DC8091E10084FF2AC0809127
:10445000E20084FF26C080E189BD82E189BD89B583
:10446000982F917080FFFBCF8091D8008F7D809333
:10447000D8008091E1008F7E8093E1008091E2007E
:104480008F7E8093E2008091E20081608093E20061
:104490008091B902882309F445C084E08093BD026D
:1044A00000DC8091E10083FF27C08091E20083FF60
:1044B00023C08091E100877F8093E10082E08093B8
:1044C000BD021092B9028091E1008E7F8093E100DD
:1044D0008091E2008E7F8093E2008091E200806113
:1044E0008093E20042E060E080E05DDE8091F000D9
:1044F00088608093F000CBDBFF91EF91BF91AF918B
:104500009F918F917F916F915F914F913F912F91EB
:104510000F900FBE0F901F90189519BC1092BD02FE
:10452000B3DB75CF8091E30087FD93E09093BD02EC
:10453000B7CF1F920F920FB60F9211242F933F9374
:104540004F935F936F937F938F939F93AF93BF939B
:10455000CF93DF93EF93FF93D091E900DF708091C9
:10456000EC00C82FC17080FDC0E81092E900809176
:10457000F000877F8093F00078941ED01092E900BD
:104580008091F00088608093F000CD2BCF70C093B5
:10459000E900FF91EF91DF91CF91BF91AF919F9192
:1045A0008F917F916F915F914F913F912F910F90DC
:1045B0000FBE0F901F901895AAE2B0E0E1EEF2E274
:1045C0008BC18EEB92E02091F100FC012193CF0191
:1045D000F2E0863C9F07B9F77EDB8091E80083FF1D
:1045E00016C18091BE029091BF029A3008F00FC1AF
:1045F000E92FF0E0E85CFA4D5AC1803899F0823832
:1046000009F005C18091C2028F70873008F0FFC0A9
:104610008093E9008091EB0085FB882780F9109258
:10462000E90006C08091BA029091BB0291118260AC
:104630009091E800977F9093E8008093F1001092AA
:10464000F1008091E8008E77DFC0882309F4CDC0A7
:10465000823009F0DCC08091C0028111D0C080910D
:10466000C2028F702FEF280F263008F0D0C0809341
:10467000E9002091EB0020FFC2C0933031F480911B
:10468000EB0080628093EB00BAC09091EB009061E8
:104690009093EB0021E030E001C0220F8A95EAF709
:1046A0002093EA001092EA008091EB008860EACF44
:1046B0008111ADC01091C0021F778091E300807816
:1046C000812B8093E3008091E800877F8093E8004E
:1046D0009EDD8091E80080FFFCCF8091E300806840
:1046E0008093E30082E0111183E08093BD028FC0CC
:1046F0008058823008F08BC08091C0029091C10236
:104700008C3D23E0920799F583E08A838AE28983CE
:104710004FB7F894DE01139620E03EE051E2E32F1C
:10472000F0E050935700E49120FF03C0E295EF7052
:104730003F5FEF708E2F90E0EA30B8F0C7968D9310
:104740009D932F5F243159F74FBF8091E800877FF9
:104750008093E8006AE270E0CE01019667DC809108
:10476000E8008B778093E80052C0C096E8CF609154
:10477000C2027091C302AE014F5F5F4F96DBBC0176
:10478000892B09F444C09091E800977F9093E8004A
:1047900089819A81A9DCE3CF8038C9F58091E8004E
:1047A000877F8093E8008091B9028093F10049CF20
:1047B00081112DC09091C002923048F58091E8009F
:1047C000877F8093E8009093B90221DD8091B90240
:1047D000882311F084E005C08091E30087FDFACFC3
:1047E00081E08093BD0266DA12C08091C002813000
:1047F00071F481E0933009F080E08093BB02109265
:10480000E9008091E800877F8093E80000DD8091D7
:10481000E80083FF0AC08091E800877F8093E8006A
:104820008091EB0080628093EB00AA96E3E070C079
:104830000895CF938091BD02882399F0C091E9003B
:10484000CF709091EC00892F817090FD80E8C82B8B
:104850001092E9008091E80083FDAEDECF70C09336
:10486000E900CF91089523DD1092BD020895E8ED8F
:10487000F0E08081806180838AE18A95F1F700C051
:104880008091D9008170089597FB072E16F400944B
:1048900006D077FD08D048D007FC05D03EF49095AF
:1048A00081959F4F0895709561957F4F0895EE0F04
:1048B000FF1F0590F491E02D09942F923F924F92A3
:1048C0005F926F927F928F929F92AF92BF92CF92A0
:1048D000DF92EF92FF920F931F93CF93DF93CDB7A9
:1048E000DEB7CA1BDB0B0FB6F894DEBF0FBECDBF21
:1048F00009942A88398848885F846E847D848C84F2
:104900009B84AA84B984C884DF80EE80FD800C81FA
:104910001B81AA81B981CE0FD11D0FB6F894DEBFDD
:104920000FBECDBFED010895AA1BBB1B51E107C00F
:10493000AA1FBB1FA617B70710F0A61BB70B881F2F
:10494000991F5A95A9F780959095BC01CD010895BE
:10495000FB01DC0104C08D910190801921F44150CC
:104960005040C8F7881B990B0895FB01DC0102C079
:1049700001900D9241505040D8F70895F999FECF1B
:1049800092BD81BDF89A992780B50895A8E1B0E05D
:1049900042E050E020C0262FF999FECF92BD81BDA4
:1049A000F89A019700B4021639F01FBA20BD0FB66D
:1049B000F894FA9AF99A0FBE08950396272FECDF20
:1049C000EADF252FE9DF242FE7CF0196272FE4DF49
:1049D000E2CFDC01CB01FC01F999FECF06C0F2BDAC
:1049E000E1BDF89A319600B40D9241505040B8F7AD
:1049F0000895F894FFCFD904D9040F050F05680571
:104A00008405010501058805F105FD05FD058B13EC
:104A100096139A139D139F13A113A313A5139F1508
:104A20001116A71571157515AB157915AF15BB15B1
:104A300085150A168915BF158D15C315EB1591152A
:104A4000C715F2159715CD15D5157D15B31581151B
:104A5000B7159B15D115E115FB1508166B15A31598
:104A60001816BA19C019AA19B419C619CC19D2192D
:104A7000FD222523072425230724582378230724F0
:044A8000CC23D82348
:104A84003A02C6F7F6F5F4313332369391909466D0
:104A9400973435FFFFFF0100000001000000000013
:104AA40000000401000000040500000000000028CC
:104AB4000850011E0A1401000001004B1B241EF6BD
:104AC4001D1F1E1A1EF4F5F6F7C6933632333197BE
:104AD400669490913534FFFFFFE200E900EA00B5E7
:104AE40000B600B700CD008301CC008A0192019486
:104AF400012102230224022502260227022A02B3EC
:104B040000B4006F0070009F01CB019F02A00281DE
:104B14008283E200E900EA00B500B600B700CD00E8
:104B24008301CC008A019201940121022302240210
:104B34002502260227022A02B300B4006F00700087
:0E4B44009F01CB019F02A002818283600200CC
:00000001FF
